{
  "abi": [
    {
      "anonymous": false,
      "inputs": [
        {
          "indexed": true,
          "internalType": "address",
          "name": "previousOwner",
          "type": "address"
        },
        {
          "indexed": true,
          "internalType": "address",
          "name": "newOwner",
          "type": "address"
        }
      ],
      "name": "OwnershipTransferred",
      "type": "event"
    },
    {
      "anonymous": false,
      "inputs": [
        {
          "indexed": true,
          "internalType": "address",
          "name": "destination",
          "type": "address"
        },
        {
          "indexed": false,
          "internalType": "uint256",
          "name": "index",
          "type": "uint256"
        },
        {
          "indexed": false,
          "internalType": "bytes",
          "name": "data",
          "type": "bytes"
        }
      ],
      "name": "TransactionFailed",
      "type": "event"
    },
    {
      "inputs": [
        {
          "internalType": "address",
          "name": "destination",
          "type": "address"
        },
        {
          "internalType": "bytes",
          "name": "data",
          "type": "bytes"
        }
      ],
      "name": "addTransaction",
      "outputs": [],
      "stateMutability": "nonpayable",
      "type": "function"
    },
    {
      "inputs": [
        {
          "internalType": "contract Policy",
          "name": "policy_",
          "type": "address"
        }
      ],
      "name": "initialize",
      "outputs": [],
      "stateMutability": "nonpayable",
      "type": "function"
    },
    {
      "inputs": [],
      "name": "owner",
      "outputs": [
        {
          "internalType": "address",
          "name": "",
          "type": "address"
        }
      ],
      "stateMutability": "view",
      "type": "function"
    },
    {
      "inputs": [],
      "name": "policy",
      "outputs": [
        {
          "internalType": "contract Policy",
          "name": "",
          "type": "address"
        }
      ],
      "stateMutability": "view",
      "type": "function"
    },
    {
      "inputs": [
        {
          "internalType": "uint256",
          "name": "_storedCurrentRate",
          "type": "uint256"
        },
        {
          "internalType": "uint256",
          "name": "_storedTargetRate",
          "type": "uint256"
        }
      ],
      "name": "rebase",
      "outputs": [
        {
          "internalType": "uint256",
          "name": "",
          "type": "uint256"
        }
      ],
      "stateMutability": "nonpayable",
      "type": "function"
    },
    {
      "inputs": [
        {
          "internalType": "uint256",
          "name": "index",
          "type": "uint256"
        }
      ],
      "name": "removeTransaction",
      "outputs": [],
      "stateMutability": "nonpayable",
      "type": "function"
    },
    {
      "inputs": [],
      "name": "renounceOwnership",
      "outputs": [],
      "stateMutability": "nonpayable",
      "type": "function"
    },
    {
      "inputs": [
        {
          "internalType": "uint256",
          "name": "index",
          "type": "uint256"
        },
        {
          "internalType": "bool",
          "name": "enabled",
          "type": "bool"
        }
      ],
      "name": "setTransactionEnabled",
      "outputs": [],
      "stateMutability": "nonpayable",
      "type": "function"
    },
    {
      "inputs": [
        {
          "internalType": "uint256",
          "name": "",
          "type": "uint256"
        }
      ],
      "name": "transactions",
      "outputs": [
        {
          "internalType": "bool",
          "name": "enabled",
          "type": "bool"
        },
        {
          "internalType": "address",
          "name": "destination",
          "type": "address"
        },
        {
          "internalType": "bytes",
          "name": "data",
          "type": "bytes"
        }
      ],
      "stateMutability": "view",
      "type": "function"
    },
    {
      "inputs": [],
      "name": "transactionsLength",
      "outputs": [
        {
          "internalType": "uint256",
          "name": "",
          "type": "uint256"
        }
      ],
      "stateMutability": "view",
      "type": "function"
    },
    {
      "inputs": [
        {
          "internalType": "address",
          "name": "newOwner",
          "type": "address"
        }
      ],
      "name": "transferOwnership",
      "outputs": [],
      "stateMutability": "nonpayable",
      "type": "function"
    }
  ],
  "address": "0xEcAcDe68b228D7Ae597837564c7973c5b4046371",
  "args": [],
  "solcInputHash": "0x28d7fe7664e4dac601819c2f0d7abf10a64a1e3617bbc05925ff53be5b24c41c",
  "bytecode": "0x608060405234801561001057600080fd5b50611198806100206000396000f3fe608060405234801561001057600080fd5b50600436106100a95760003560e01c8063715018a611610071578063715018a6146101cb5780638c32a0d3146101d35780638da5cb5b146101db5780639ace38c2146101e3578063c4d66de814610291578063f2fde38b146102b7576100a9565b80630505c8c9146100ae578063058ecdb4146100d2578063126e19be1461010757806346c3bd1f146101895780636e9dde99146101a6575b600080fd5b6100b66102dd565b604080516001600160a01b039092168252519081900360200190f35b6100f5600480360360408110156100e857600080fd5b50803590602001356102ec565b60408051918252519081900360200190f35b6101876004803603604081101561011d57600080fd5b6001600160a01b03823516919081019060408101602082013564010000000081111561014857600080fd5b82018360208201111561015a57600080fd5b8035906020019184600183028401116401000000008311171561017c57600080fd5b5090925090506105da565b005b6101876004803603602081101561019f57600080fd5b5035610700565b610187600480360360408110156101bc57600080fd5b508035906020013515156108a0565b610187610969565b6100f5610a0b565b6100b6610a11565b610200600480360360208110156101f957600080fd5b5035610a20565b604051808415158152602001836001600160a01b0316815260200180602001828103825283818151815260200191508051906020019080838360005b8381101561025457818101518382015260200161023c565b50505050905090810190601f1680156102815780820380516001836020036101000a031916815260200191505b5094505050505060405180910390f35b610187600480360360208110156102a757600080fd5b50356001600160a01b0316610ae5565b610187600480360360208110156102cd57600080fd5b50356001600160a01b0316610c0b565b6098546001600160a01b031681565b60006102f6610d04565b6065546001600160a01b03908116911614610346576040805162461bcd60e51b81526020600482018190526024820152600080516020611115833981519152604482015290519081900360640190fd5b33321461035257600080fd5b60985460408051630163b36d60e21b8152600481018690526024810185905290516000926001600160a01b03169163058ecdb491604480830192602092919082900301818787803b1580156103a657600080fd5b505af11580156103ba573d6000803e3d6000fd5b505050506040513d60208110156103d057600080fd5b5051905060005b6097548110156105d2576000609782815481106103f057fe5b60009182526020909120600290910201805490915060ff16156105c95780546001808301805460408051602060026101009685161587026000190190941693909304601f81018490048402820184019092528181526000956104b89590046001600160a01b03169390929091908301828280156104ae5780601f10610483576101008083540402835291602001916104ae565b820191906000526020600020905b81548152906001019060200180831161049157829003601f168201915b5050505050610d08565b9050806105c75781546040805185815260208101828152600180870180546002610100938216158402600019019091160494840185905294046001600160a01b0316937f8091ecaaa54ebb82e02d36c2c336528e0fcb9b3430fc1291ac88295032b9c2639388939192906060830190849080156105765780601f1061054b57610100808354040283529160200191610576565b820191906000526020600020905b81548152906001019060200180831161055957829003601f168201915b5050935050505060405180910390a26040805162461bcd60e51b8152602060048201526012602482015271151c985b9cd858dd1a5bdb8811985a5b195960721b604482015290519081900360640190fd5b505b506001016103d7565b509392505050565b6105e2610d04565b6065546001600160a01b03908116911614610632576040805162461bcd60e51b81526020600482018190526024820152600080516020611115833981519152604482015290519081900360640190fd5b60976040518060600160405280600115158152602001856001600160a01b0316815260200184848080601f016020809104026020016040519081016040528093929190818152602001838380828437600092018290525093909452505083546001818101865594825260209182902084516002909202018054838601516001600160a01b031661010002610100600160a81b031993151560ff19909216919091179290921691909117815560408401518051949591946106f89450918501920190610f7e565b505050505050565b610708610d04565b6065546001600160a01b03908116911614610758576040805162461bcd60e51b81526020600482018190526024820152600080516020611115833981519152604482015290519081900360640190fd5b60975481106107a4576040805162461bcd60e51b8152602060048201526013602482015272696e646578206f7574206f6620626f756e647360681b604482015290519081900360640190fd5b805b6097546000190181101561085c57609781600101815481106107c457fe5b9060005260206000209060020201609782815481106107df57fe5b6000918252602090912082546002928302909101805460ff191660ff9092161515919091178082558354610100600160a81b0319909116610100918290046001600160a01b03168202178255600180850180549394610851948387019492938116159092026000190190911604610ffc565b5050506001016107a6565b50609780548061086857fe5b60008281526020812060026000199093019283020180546001600160a81b0319168155906108996001830182611071565b5050905550565b6108a8610d04565b6065546001600160a01b039081169116146108f8576040805162461bcd60e51b81526020600482018190526024820152600080516020611115833981519152604482015290519081900360640190fd5b60975482106109385760405162461bcd60e51b81526004018080602001828103825260288152602001806110ed6028913960400191505060405180910390fd5b806097838154811061094657fe5b60009182526020909120600290910201805460ff19169115159190911790555050565b610971610d04565b6065546001600160a01b039081169116146109c1576040805162461bcd60e51b81526020600482018190526024820152600080516020611115833981519152604482015290519081900360640190fd5b6065546040516000916001600160a01b0316907f8be0079c531659141344cd1fd0a4f28419497f9722a3daafe3b4186f6b6457e0908390a3606580546001600160a01b0319169055565b60975490565b6065546001600160a01b031690565b60978181548110610a2d57fe5b6000918252602091829020600291820201805460018083018054604080516101009483161585026000190190921696909604601f810188900488028201880190965285815260ff84169750919092046001600160a01b03169492939092830182828015610adb5780601f10610ab057610100808354040283529160200191610adb565b820191906000526020600020905b815481529060010190602001808311610abe57829003601f168201915b5050505050905083565b600054610100900460ff1680610afe5750610afe610d2d565b80610b0c575060005460ff16155b610b475760405162461bcd60e51b815260040180806020018281038252602e815260200180611135602e913960400191505060405180910390fd5b600054610100900460ff16158015610b72576000805460ff1961ff0019909116610100171660011790555b610b7a610d33565b609880546001600160a01b0319166001600160a01b0384811691909117918290556040805163cd28ef0d60e01b81523060048201529051929091169163cd28ef0d9160248082019260009290919082900301818387803b158015610bdd57600080fd5b505af1158015610bf1573d6000803e3d6000fd5b505050508015610c07576000805461ff00191690555b5050565b610c13610d04565b6065546001600160a01b03908116911614610c63576040805162461bcd60e51b81526020600482018190526024820152600080516020611115833981519152604482015290519081900360640190fd5b6001600160a01b038116610ca85760405162461bcd60e51b81526004018080602001828103825260268152602001806110c76026913960400191505060405180910390fd5b6065546040516001600160a01b038084169216907f8be0079c531659141344cd1fd0a4f28419497f9722a3daafe3b4186f6b6457e090600090a3606580546001600160a01b0319166001600160a01b0392909216919091179055565b3390565b600080604051602084016187965a0360008387518460008b86f1979650505050505050565b303b1590565b600054610100900460ff1680610d4c5750610d4c610d2d565b80610d5a575060005460ff16155b610d955760405162461bcd60e51b815260040180806020018281038252602e815260200180611135602e913960400191505060405180910390fd5b600054610100900460ff16158015610dc0576000805460ff1961ff0019909116610100171660011790555b610dc8610de5565b610dd0610e85565b8015610de2576000805461ff00191690555b50565b600054610100900460ff1680610dfe5750610dfe610d2d565b80610e0c575060005460ff16155b610e475760405162461bcd60e51b815260040180806020018281038252602e815260200180611135602e913960400191505060405180910390fd5b600054610100900460ff16158015610dd0576000805460ff1961ff0019909116610100171660011790558015610de2576000805461ff001916905550565b600054610100900460ff1680610e9e5750610e9e610d2d565b80610eac575060005460ff16155b610ee75760405162461bcd60e51b815260040180806020018281038252602e815260200180611135602e913960400191505060405180910390fd5b600054610100900460ff16158015610f12576000805460ff1961ff0019909116610100171660011790555b6000610f1c610d04565b606580546001600160a01b0319166001600160a01b038316908117909155604051919250906000907f8be0079c531659141344cd1fd0a4f28419497f9722a3daafe3b4186f6b6457e0908290a3508015610de2576000805461ff001916905550565b828054600181600116156101000203166002900490600052602060002090601f016020900481019282601f10610fbf57805160ff1916838001178555610fec565b82800160010185558215610fec579182015b82811115610fec578251825591602001919060010190610fd1565b50610ff89291506110b1565b5090565b828054600181600116156101000203166002900490600052602060002090601f016020900481019282601f106110355780548555610fec565b82800160010185558215610fec57600052602060002091601f016020900482015b82811115610fec578254825591600101919060010190611056565b50805460018160011615610100020316600290046000825580601f106110975750610de2565b601f016020900490600052602060002090810190610de291905b5b80821115610ff857600081556001016110b256fe4f776e61626c653a206e6577206f776e657220697320746865207a65726f2061646472657373696e646578206d75737420626520696e2072616e6765206f662073746f726564207478206c6973744f776e61626c653a2063616c6c6572206973206e6f7420746865206f776e6572436f6e747261637420696e7374616e63652068617320616c7265616479206265656e20696e697469616c697a6564a2646970667358221220c6bee61fd7741ded57fa3ad22f41d043f0f5ad194284ad0ab0a4c374b340058164736f6c634300060c0033",
  "devdoc": {
    "kind": "dev",
    "methods": {
      "addTransaction(address,bytes)": {
        "params": {
          "data": "Transaction data payload",
          "destination": "Address of contract destination"
        }
      },
      "owner()": {
        "details": "Returns the address of the current owner."
      },
      "removeTransaction(uint256)": {
        "params": {
          "index": "Index of transaction to remove.              Transaction ordering may have changed since adding."
        }
      },
      "renounceOwnership()": {
        "details": "Leaves the contract without owner. It will not be possible to call `onlyOwner` functions anymore. Can only be called by the current owner. NOTE: Renouncing ownership will leave the contract without an owner, thereby removing any functionality that is only available to the owner."
      },
      "setTransactionEnabled(uint256,bool)": {
        "params": {
          "enabled": "True for enabled, false for disabled.",
          "index": "Index of transaction. Transaction ordering may have changed since adding."
        }
      },
      "transactionsLength()": {
        "returns": {
          "_0": "Number of transactions, both enabled and disabled, in transactions list."
        }
      },
      "transferOwnership(address)": {
        "details": "Transfers ownership of the contract to a new account (`newOwner`). Can only be called by the current owner."
      }
    },
    "title": "Orchestrator",
    "version": 1
  },
  "userdoc": {
    "kind": "user",
    "methods": {
      "addTransaction(address,bytes)": {
        "notice": "Adds a transaction that gets called for a downstream receiver of rebases"
      },
      "rebase(uint256,uint256)": {
        "notice": "Main entry point to initiate a rebase operation.         The Orchestrator calls rebase on the policy and notifies downstream applications.         Contracts are guarded from calling, to avoid flash loan attacks on liquidity         providers.         If a transaction in the transaction list reverts, it is swallowed and the remaining         transactions are executed."
      }
    },
    "notice": "The orchestrator is the main entry point for rebase operations. It coordinates the policy actions with external consumers.",
    "version": 1
  },
  "storageLayout": {
    "storage": [
      {
        "astId": 8128,
        "contract": "contracts/Orchestrator.sol:Orchestrator",
        "label": "initialized",
        "offset": 0,
        "slot": "0",
        "type": "t_bool"
      },
      {
        "astId": 8131,
        "contract": "contracts/Orchestrator.sol:Orchestrator",
        "label": "initializing",
        "offset": 1,
        "slot": "0",
        "type": "t_bool"
      },
      {
        "astId": 8196,
        "contract": "contracts/Orchestrator.sol:Orchestrator",
        "label": "______gap",
        "offset": 0,
        "slot": "1",
        "type": "t_array(t_uint256)50_storage"
      },
      {
        "astId": 8121,
        "contract": "contracts/Orchestrator.sol:Orchestrator",
        "label": "__gap",
        "offset": 0,
        "slot": "51",
        "type": "t_array(t_uint256)50_storage"
      },
      {
        "astId": 8208,
        "contract": "contracts/Orchestrator.sol:Orchestrator",
        "label": "_owner",
        "offset": 0,
        "slot": "101",
        "type": "t_address"
      },
      {
        "astId": 8326,
        "contract": "contracts/Orchestrator.sol:Orchestrator",
        "label": "__gap",
        "offset": 0,
        "slot": "102",
        "type": "t_array(t_uint256)49_storage"
      },
      {
        "astId": 8780,
        "contract": "contracts/Orchestrator.sol:Orchestrator",
        "label": "transactions",
        "offset": 0,
        "slot": "151",
        "type": "t_array(t_struct(Transaction)8769_storage)dyn_storage"
      },
      {
        "astId": 8782,
        "contract": "contracts/Orchestrator.sol:Orchestrator",
        "label": "policy",
        "offset": 0,
        "slot": "152",
        "type": "t_contract(Policy)9538"
      },
      {
        "astId": 8786,
        "contract": "contracts/Orchestrator.sol:Orchestrator",
        "label": "______gap",
        "offset": 0,
        "slot": "153",
        "type": "t_array(t_uint256)50_storage"
      }
    ],
    "types": {
      "t_address": {
        "encoding": "inplace",
        "label": "address",
        "numberOfBytes": "20"
      },
      "t_array(t_struct(Transaction)8769_storage)dyn_storage": {
        "base": "t_struct(Transaction)8769_storage",
        "encoding": "dynamic_array",
        "label": "struct Orchestrator.Transaction[]",
        "numberOfBytes": "32"
      },
      "t_array(t_uint256)49_storage": {
        "base": "t_uint256",
        "encoding": "inplace",
        "label": "uint256[49]",
        "numberOfBytes": "1568"
      },
      "t_array(t_uint256)50_storage": {
        "base": "t_uint256",
        "encoding": "inplace",
        "label": "uint256[50]",
        "numberOfBytes": "1600"
      },
      "t_bool": {
        "encoding": "inplace",
        "label": "bool",
        "numberOfBytes": "1"
      },
      "t_bytes_storage": {
        "encoding": "bytes",
        "label": "bytes",
        "numberOfBytes": "32"
      },
      "t_contract(Policy)9538": {
        "encoding": "inplace",
        "label": "contract Policy",
        "numberOfBytes": "20"
      },
      "t_struct(Transaction)8769_storage": {
        "encoding": "inplace",
        "label": "struct Orchestrator.Transaction",
        "members": [
          {
            "astId": 8764,
            "contract": "contracts/Orchestrator.sol:Orchestrator",
            "label": "enabled",
            "offset": 0,
            "slot": "0",
            "type": "t_bool"
          },
          {
            "astId": 8766,
            "contract": "contracts/Orchestrator.sol:Orchestrator",
            "label": "destination",
            "offset": 1,
            "slot": "0",
            "type": "t_address"
          },
          {
            "astId": 8768,
            "contract": "contracts/Orchestrator.sol:Orchestrator",
            "label": "data",
            "offset": 0,
            "slot": "1",
            "type": "t_bytes_storage"
          }
        ],
        "numberOfBytes": "64"
      },
      "t_uint256": {
        "encoding": "inplace",
        "label": "uint256",
        "numberOfBytes": "32"
      }
    }
  },
  "gasEstimates": {
    "creation": {
      "codeDepositCost": "900800",
      "executionCost": "935",
      "totalCost": "901735"
    },
    "external": {
      "addTransaction(address,bytes)": "infinite",
      "initialize(address)": "infinite",
      "owner()": "1081",
      "policy()": "1038",
      "rebase(uint256,uint256)": "infinite",
      "removeTransaction(uint256)": "infinite",
      "renounceOwnership()": "infinite",
      "setTransactionEnabled(uint256,bool)": "infinite",
      "transactions(uint256)": "infinite",
      "transactionsLength()": "1020",
      "transferOwnership(address)": "infinite"
    },
    "internal": {
      "externalCall(address,bytes memory)": "infinite"
    }
  }
}