{
  "abi": [
    {
      "anonymous": false,
      "inputs": [
        {
          "indexed": true,
          "internalType": "uint256",
          "name": "epoch",
          "type": "uint256"
        },
        {
          "indexed": false,
          "internalType": "uint256",
          "name": "currentRate",
          "type": "uint256"
        },
        {
          "indexed": false,
          "internalType": "uint256",
          "name": "targetRate",
          "type": "uint256"
        },
        {
          "indexed": false,
          "internalType": "int256",
          "name": "requestedSupplyAdjustment",
          "type": "int256"
        },
        {
          "indexed": false,
          "internalType": "uint256",
          "name": "timestampSec",
          "type": "uint256"
        }
      ],
      "name": "LogRebase",
      "type": "event"
    },
    {
      "anonymous": false,
      "inputs": [
        {
          "indexed": true,
          "internalType": "address",
          "name": "previousOwner",
          "type": "address"
        },
        {
          "indexed": true,
          "internalType": "address",
          "name": "newOwner",
          "type": "address"
        }
      ],
      "name": "OwnershipTransferred",
      "type": "event"
    },
    {
      "inputs": [],
      "name": "deviationThreshold",
      "outputs": [
        {
          "internalType": "uint256",
          "name": "",
          "type": "uint256"
        }
      ],
      "stateMutability": "view",
      "type": "function"
    },
    {
      "inputs": [],
      "name": "epoch",
      "outputs": [
        {
          "internalType": "uint256",
          "name": "",
          "type": "uint256"
        }
      ],
      "stateMutability": "view",
      "type": "function"
    },
    {
      "inputs": [],
      "name": "inRebaseWindow",
      "outputs": [
        {
          "internalType": "bool",
          "name": "",
          "type": "bool"
        }
      ],
      "stateMutability": "view",
      "type": "function"
    },
    {
      "inputs": [
        {
          "internalType": "contract Tracker",
          "name": "tracker_",
          "type": "address"
        }
      ],
      "name": "initialize",
      "outputs": [],
      "stateMutability": "nonpayable",
      "type": "function"
    },
    {
      "inputs": [],
      "name": "lastRebaseTimestampSec",
      "outputs": [
        {
          "internalType": "uint256",
          "name": "",
          "type": "uint256"
        }
      ],
      "stateMutability": "view",
      "type": "function"
    },
    {
      "inputs": [],
      "name": "minRebaseTimeIntervalSec",
      "outputs": [
        {
          "internalType": "uint256",
          "name": "",
          "type": "uint256"
        }
      ],
      "stateMutability": "view",
      "type": "function"
    },
    {
      "inputs": [],
      "name": "orchestrator",
      "outputs": [
        {
          "internalType": "address",
          "name": "",
          "type": "address"
        }
      ],
      "stateMutability": "view",
      "type": "function"
    },
    {
      "inputs": [],
      "name": "owner",
      "outputs": [
        {
          "internalType": "address",
          "name": "",
          "type": "address"
        }
      ],
      "stateMutability": "view",
      "type": "function"
    },
    {
      "inputs": [
        {
          "internalType": "uint256",
          "name": "_storedCurrentRate",
          "type": "uint256"
        },
        {
          "internalType": "uint256",
          "name": "_storedTargetRate",
          "type": "uint256"
        }
      ],
      "name": "rebase",
      "outputs": [
        {
          "internalType": "uint256",
          "name": "",
          "type": "uint256"
        }
      ],
      "stateMutability": "nonpayable",
      "type": "function"
    },
    {
      "inputs": [],
      "name": "rebaseLag",
      "outputs": [
        {
          "internalType": "uint256",
          "name": "",
          "type": "uint256"
        }
      ],
      "stateMutability": "view",
      "type": "function"
    },
    {
      "inputs": [],
      "name": "rebaseWindowLengthSec",
      "outputs": [
        {
          "internalType": "uint256",
          "name": "",
          "type": "uint256"
        }
      ],
      "stateMutability": "view",
      "type": "function"
    },
    {
      "inputs": [],
      "name": "rebaseWindowOffsetSec",
      "outputs": [
        {
          "internalType": "uint256",
          "name": "",
          "type": "uint256"
        }
      ],
      "stateMutability": "view",
      "type": "function"
    },
    {
      "inputs": [],
      "name": "renounceOwnership",
      "outputs": [],
      "stateMutability": "nonpayable",
      "type": "function"
    },
    {
      "inputs": [
        {
          "internalType": "uint256",
          "name": "deviationThreshold_",
          "type": "uint256"
        }
      ],
      "name": "setDeviationThreshold",
      "outputs": [],
      "stateMutability": "nonpayable",
      "type": "function"
    },
    {
      "inputs": [
        {
          "internalType": "address",
          "name": "orchestrator_",
          "type": "address"
        }
      ],
      "name": "setOrchestrator",
      "outputs": [],
      "stateMutability": "nonpayable",
      "type": "function"
    },
    {
      "inputs": [
        {
          "internalType": "uint256",
          "name": "rebaseLag_",
          "type": "uint256"
        }
      ],
      "name": "setRebaseLag",
      "outputs": [],
      "stateMutability": "nonpayable",
      "type": "function"
    },
    {
      "inputs": [
        {
          "internalType": "uint256",
          "name": "minRebaseTimeIntervalSec_",
          "type": "uint256"
        },
        {
          "internalType": "uint256",
          "name": "rebaseWindowOffsetSec_",
          "type": "uint256"
        },
        {
          "internalType": "uint256",
          "name": "rebaseWindowLengthSec_",
          "type": "uint256"
        }
      ],
      "name": "setRebaseTimingParameters",
      "outputs": [],
      "stateMutability": "nonpayable",
      "type": "function"
    },
    {
      "inputs": [],
      "name": "storedCurrentRate",
      "outputs": [
        {
          "internalType": "uint256",
          "name": "",
          "type": "uint256"
        }
      ],
      "stateMutability": "view",
      "type": "function"
    },
    {
      "inputs": [],
      "name": "storedTargetRate",
      "outputs": [
        {
          "internalType": "uint256",
          "name": "",
          "type": "uint256"
        }
      ],
      "stateMutability": "view",
      "type": "function"
    },
    {
      "inputs": [],
      "name": "tracker",
      "outputs": [
        {
          "internalType": "contract Tracker",
          "name": "",
          "type": "address"
        }
      ],
      "stateMutability": "view",
      "type": "function"
    },
    {
      "inputs": [
        {
          "internalType": "address",
          "name": "newOwner",
          "type": "address"
        }
      ],
      "name": "transferOwnership",
      "outputs": [],
      "stateMutability": "nonpayable",
      "type": "function"
    }
  ],
  "address": "0x4504d0F56146fcd73f92791147cC68AB5575EB34",
  "args": [],
  "solcInputHash": "0xc6578710e4bc21e963bbbff6e66a45859b28ab163be6c5ac3ccbe36bf7159e16",
  "bytecode": "0x608060405234801561001057600080fd5b50611e72806100206000396000f3fe608060405234801561001057600080fd5b50600436106101375760003560e01c8063715018a6116100b8578063c4d66de81161007c578063c4d66de81461038a578063cd28ef0d146103ce578063d94ad83714610412578063f2fde38b14610430578063f52bccad14610474578063f7baec1b146104a857610137565b8063715018a6146102dc5780638da5cb5b146102e6578063900cf0cf1461031a5780639466120f14610338578063b74795d91461035657610137565b80633a93069b116100ff5780633a93069b1461023657806343b2af461461025457806353a15edc1461027257806363f6d4c8146102a05780637052b902146102be57610137565b8063021018991461013c578063058ecdb41461015a578063111d0498146101a657806316250fd4146101c657806320ce838914610208575b600080fd5b6101446104c6565b6040518082815260200191505060405180910390f35b6101906004803603604081101561017057600080fd5b8101908080359060200190929190803590602001909291905050506104cc565b6040518082815260200191505060405180910390f35b6101ae610936565b60405180821515815260200191505060405180910390f35b610206600480360360608110156101dc57600080fd5b8101908080359060200190929190803590602001909291908035906020019092919050505061098c565b005b6102346004803603602081101561021e57600080fd5b8101908080359060200190929190505050610a89565b005b61023e610b6a565b6040518082815260200191505060405180910390f35b61025c610b70565b6040518082815260200191505060405180910390f35b61029e6004803603602081101561028857600080fd5b8101908080359060200190929190505050610b76565b005b6102a8610c4a565b6040518082815260200191505060405180910390f35b6102c6610c50565b6040518082815260200191505060405180910390f35b6102e4610c56565b005b6102ee610de1565b604051808273ffffffffffffffffffffffffffffffffffffffff16815260200191505060405180910390f35b610322610e0b565b6040518082815260200191505060405180910390f35b610340610e11565b6040518082815260200191505060405180910390f35b61035e610e17565b604051808273ffffffffffffffffffffffffffffffffffffffff16815260200191505060405180910390f35b6103cc600480360360208110156103a057600080fd5b81019080803573ffffffffffffffffffffffffffffffffffffffff169060200190929190505050610e3d565b005b610410600480360360208110156103e457600080fd5b81019080803573ffffffffffffffffffffffffffffffffffffffff169060200190929190505050610fca565b005b61041a6110d8565b6040518082815260200191505060405180910390f35b6104726004803603602081101561044657600080fd5b81019080803573ffffffffffffffffffffffffffffffffffffffff1690602001909291905050506110de565b005b61047c6112ee565b604051808273ffffffffffffffffffffffffffffffffffffffff16815260200191505060405180910390f35b6104b0611314565b6040518082815260200191505060405180910390f35b609c5481565b600060a160009054906101000a900473ffffffffffffffffffffffffffffffffffffffff1673ffffffffffffffffffffffffffffffffffffffff163373ffffffffffffffffffffffffffffffffffffffff161461052857600080fd5b610530610936565b61053957600080fd5b42610551609c54609d5461131a90919063ffffffff16565b1061055b57600080fd5b610596609e54610588610579609c54426113a290919063ffffffff16565b426113ec90919063ffffffff16565b61131a90919063ffffffff16565b609d819055506105b2600160a05461131a90919063ffffffff16565b60a081905550600083116105c557600080fd5b6012600a0a620f4240028311156105db57600080fd5b82609881905550600083116105ef57600080fd5b6012600a0a620f42400283111561060557600080fd5b81609981905550600061061c609854609954611436565b905061063b61062c609b54611550565b8261156d90919063ffffffff16565b905060008113801561071857506012600a0a620f42400260ff6001901b198161066057fe5b0461071682609760009054906101000a900473ffffffffffffffffffffffffffffffffffffffff1673ffffffffffffffffffffffffffffffffffffffff166318160ddd6040518163ffffffff1660e01b815260040160206040518083038186803b1580156106cd57600080fd5b505afa1580156106e1573d6000803e3d6000fd5b505050506040513d60208110156106f757600080fd5b810190808051906020019092919050505061131a90919063ffffffff16565b115b156107f5576107f26107ed609760009054906101000a900473ffffffffffffffffffffffffffffffffffffffff1673ffffffffffffffffffffffffffffffffffffffff166318160ddd6040518163ffffffff1660e01b815260040160206040518083038186803b15801561078b57600080fd5b505afa15801561079f573d6000803e3d6000fd5b505050506040513d60208110156107b557600080fd5b81019080805190602001909291905050506012600a0a620f42400260ff6001901b19816107de57fe5b046113ec90919063ffffffff16565b611550565b90505b6000609760009054906101000a900473ffffffffffffffffffffffffffffffffffffffff1673ffffffffffffffffffffffffffffffffffffffff16637a43e23f60a054846040518363ffffffff1660e01b81526004018083815260200182815260200192505050602060405180830381600087803b15801561087657600080fd5b505af115801561088a573d6000803e3d6000fd5b505050506040513d60208110156108a057600080fd5b810190808051906020019092919050505090506012600a0a620f42400260ff6001901b19816108cb57fe5b048111156108d557fe5b60a0547f41d948a7f29cc695f5d4b3ec147f766bffa165ddd317470fbe05c86d0a9c3e0460985460995485426040518085815260200184815260200183815260200182815260200194505050505060405180910390a2809250505092915050565b6000609e54610950609c54426113a290919063ffffffff16565b101580156109875750610970609f54609e5461131a90919063ffffffff16565b610985609c54426113a290919063ffffffff16565b105b905090565b6109946115be565b73ffffffffffffffffffffffffffffffffffffffff16606560009054906101000a900473ffffffffffffffffffffffffffffffffffffffff1673ffffffffffffffffffffffffffffffffffffffff1614610a56576040517f08c379a00000000000000000000000000000000000000000000000000000000081526004018080602001828103825260208152602001807f4f776e61626c653a2063616c6c6572206973206e6f7420746865206f776e657281525060200191505060405180910390fd5b60008311610a6357600080fd5b828210610a6f57600080fd5b82609c8190555081609e8190555080609f81905550505050565b610a916115be565b73ffffffffffffffffffffffffffffffffffffffff16606560009054906101000a900473ffffffffffffffffffffffffffffffffffffffff1673ffffffffffffffffffffffffffffffffffffffff1614610b53576040517f08c379a00000000000000000000000000000000000000000000000000000000081526004018080602001828103825260208152602001807f4f776e61626c653a2063616c6c6572206973206e6f7420746865206f776e657281525060200191505060405180910390fd5b60008111610b6057600080fd5b80609b8190555050565b609d5481565b60985481565b610b7e6115be565b73ffffffffffffffffffffffffffffffffffffffff16606560009054906101000a900473ffffffffffffffffffffffffffffffffffffffff1673ffffffffffffffffffffffffffffffffffffffff1614610c40576040517f08c379a00000000000000000000000000000000000000000000000000000000081526004018080602001828103825260208152602001807f4f776e61626c653a2063616c6c6572206973206e6f7420746865206f776e657281525060200191505060405180910390fd5b80609a8190555050565b609b5481565b609e5481565b610c5e6115be565b73ffffffffffffffffffffffffffffffffffffffff16606560009054906101000a900473ffffffffffffffffffffffffffffffffffffffff1673ffffffffffffffffffffffffffffffffffffffff1614610d20576040517f08c379a00000000000000000000000000000000000000000000000000000000081526004018080602001828103825260208152602001807f4f776e61626c653a2063616c6c6572206973206e6f7420746865206f776e657281525060200191505060405180910390fd5b600073ffffffffffffffffffffffffffffffffffffffff16606560009054906101000a900473ffffffffffffffffffffffffffffffffffffffff1673ffffffffffffffffffffffffffffffffffffffff167f8be0079c531659141344cd1fd0a4f28419497f9722a3daafe3b4186f6b6457e060405160405180910390a36000606560006101000a81548173ffffffffffffffffffffffffffffffffffffffff021916908373ffffffffffffffffffffffffffffffffffffffff160217905550565b6000606560009054906101000a900473ffffffffffffffffffffffffffffffffffffffff16905090565b60a05481565b609f5481565b60a160009054906101000a900473ffffffffffffffffffffffffffffffffffffffff1681565b600060019054906101000a900460ff1680610e5c5750610e5b6115c6565b5b80610e72575060008054906101000a900460ff16155b610ec7576040517f08c379a000000000000000000000000000000000000000000000000000000000815260040180806020018281038252602e815260200180611e0f602e913960400191505060405180910390fd5b60008060019054906101000a900460ff161590508015610f17576001600060016101000a81548160ff02191690831515021790555060016000806101000a81548160ff0219169083151502179055505b610f1f6115dd565b6002601203600a0a600502609a819055506004609b8190555062015180609c819055506000609e8190555062015180609f819055506000609d81905550600060a08190555081609760006101000a81548173ffffffffffffffffffffffffffffffffffffffff021916908373ffffffffffffffffffffffffffffffffffffffff1602179055508015610fc65760008060016101000a81548160ff0219169083151502179055505b5050565b610fd26115be565b73ffffffffffffffffffffffffffffffffffffffff16606560009054906101000a900473ffffffffffffffffffffffffffffffffffffffff1673ffffffffffffffffffffffffffffffffffffffff1614611094576040517f08c379a00000000000000000000000000000000000000000000000000000000081526004018080602001828103825260208152602001807f4f776e61626c653a2063616c6c6572206973206e6f7420746865206f776e657281525060200191505060405180910390fd5b8060a160006101000a81548173ffffffffffffffffffffffffffffffffffffffff021916908373ffffffffffffffffffffffffffffffffffffffff16021790555050565b609a5481565b6110e66115be565b73ffffffffffffffffffffffffffffffffffffffff16606560009054906101000a900473ffffffffffffffffffffffffffffffffffffffff1673ffffffffffffffffffffffffffffffffffffffff16146111a8576040517f08c379a00000000000000000000000000000000000000000000000000000000081526004018080602001828103825260208152602001807f4f776e61626c653a2063616c6c6572206973206e6f7420746865206f776e657281525060200191505060405180910390fd5b600073ffffffffffffffffffffffffffffffffffffffff168173ffffffffffffffffffffffffffffffffffffffff16141561122e576040517f08c379a0000000000000000000000000000000000000000000000000000000008152600401808060200182810382526026815260200180611dc86026913960400191505060405180910390fd5b8073ffffffffffffffffffffffffffffffffffffffff16606560009054906101000a900473ffffffffffffffffffffffffffffffffffffffff1673ffffffffffffffffffffffffffffffffffffffff167f8be0079c531659141344cd1fd0a4f28419497f9722a3daafe3b4186f6b6457e060405160405180910390a380606560006101000a81548173ffffffffffffffffffffffffffffffffffffffff021916908373ffffffffffffffffffffffffffffffffffffffff16021790555050565b609760009054906101000a900473ffffffffffffffffffffffffffffffffffffffff1681565b60995481565b600080828401905083811015611398576040517f08c379a000000000000000000000000000000000000000000000000000000000815260040180806020018281038252601b8152602001807f536166654d6174683a206164646974696f6e206f766572666c6f77000000000081525060200191505060405180910390fd5b8091505092915050565b60006113e483836040518060400160405280601881526020017f536166654d6174683a206d6f64756c6f206279207a65726f00000000000000008152506116eb565b905092915050565b600061142e83836040518060400160405280601e81526020017f536166654d6174683a207375627472616374696f6e206f766572666c6f7700008152506117ac565b905092915050565b6000611442838361186c565b15611450576000905061154a565b600061145b83611550565b90506115468161153861147f8461147189611550565b6118ed90919063ffffffff16565b61152a609760009054906101000a900473ffffffffffffffffffffffffffffffffffffffff1673ffffffffffffffffffffffffffffffffffffffff166318160ddd6040518163ffffffff1660e01b815260040160206040518083038186803b1580156114ea57600080fd5b505afa1580156114fe573d6000803e3d6000fd5b505050506040513d602081101561151457600080fd5b8101908080519060200190929190505050611550565b61192f90919063ffffffff16565b61156d90919063ffffffff16565b9150505b92915050565b600060ff6001901b1982111561156557600080fd5b819050919050565b60007fffffffffffffffffffffffffffffffffffffffffffffffffffffffffffffffff821415806115a3575060ff6001901b8314155b6115ac57600080fd5b8183816115b557fe5b05905092915050565b600033905090565b6000803090506000813b9050600081149250505090565b600060019054906101000a900460ff16806115fc57506115fb6115c6565b5b80611612575060008054906101000a900460ff16155b611667576040517f08c379a000000000000000000000000000000000000000000000000000000000815260040180806020018281038252602e815260200180611e0f602e913960400191505060405180910390fd5b60008060019054906101000a900460ff1615905080156116b7576001600060016101000a81548160ff02191690831515021790555060016000806101000a81548160ff0219169083151502179055505b6116bf61198c565b6116c7611a8a565b80156116e85760008060016101000a81548160ff0219169083151502179055505b50565b6000808314158290611798576040517f08c379a00000000000000000000000000000000000000000000000000000000081526004018080602001828103825283818151815260200191508051906020019080838360005b8381101561175d578082015181840152602081019050611742565b50505050905090810190601f16801561178a5780820380516001836020036101000a031916815260200191505b509250505060405180910390fd5b508284816117a257fe5b0690509392505050565b6000838311158290611859576040517f08c379a00000000000000000000000000000000000000000000000000000000081526004018080602001828103825283818151815260200191508051906020019080838360005b8381101561181e578082015181840152602081019050611803565b50505050905090810190601f16801561184b5780820380516001836020036101000a031916815260200191505b509250505060405180910390fd5b5060008385039050809150509392505050565b60008061189a6012600a0a61188c609a5486611c3190919063ffffffff16565b611cb790919063ffffffff16565b90508284101580156118bd5750806118bb84866113ec90919063ffffffff16565b105b806118e4575082841080156118e35750806118e185856113ec90919063ffffffff16565b105b5b91505092915050565b6000808284039050600083121580156119065750838113155b8061191c575060008312801561191b57508381135b5b61192557600080fd5b8091505092915050565b600080828402905060ff6001901b81141580611959575060ff6001901b831660ff6001901b851614155b61196257600080fd5b600083148061197957508383828161197657fe5b05145b61198257600080fd5b8091505092915050565b600060019054906101000a900460ff16806119ab57506119aa6115c6565b5b806119c1575060008054906101000a900460ff16155b611a16576040517f08c379a000000000000000000000000000000000000000000000000000000000815260040180806020018281038252602e815260200180611e0f602e913960400191505060405180910390fd5b60008060019054906101000a900460ff161590508015611a66576001600060016101000a81548160ff02191690831515021790555060016000806101000a81548160ff0219169083151502179055505b8015611a875760008060016101000a81548160ff0219169083151502179055505b50565b600060019054906101000a900460ff1680611aa95750611aa86115c6565b5b80611abf575060008054906101000a900460ff16155b611b14576040517f08c379a000000000000000000000000000000000000000000000000000000000815260040180806020018281038252602e815260200180611e0f602e913960400191505060405180910390fd5b60008060019054906101000a900460ff161590508015611b64576001600060016101000a81548160ff02191690831515021790555060016000806101000a81548160ff0219169083151502179055505b6000611b6e6115be565b905080606560006101000a81548173ffffffffffffffffffffffffffffffffffffffff021916908373ffffffffffffffffffffffffffffffffffffffff1602179055508073ffffffffffffffffffffffffffffffffffffffff16600073ffffffffffffffffffffffffffffffffffffffff167f8be0079c531659141344cd1fd0a4f28419497f9722a3daafe3b4186f6b6457e060405160405180910390a3508015611c2e5760008060016101000a81548160ff0219169083151502179055505b50565b600080831415611c445760009050611cb1565b6000828402905082848281611c5557fe5b0414611cac576040517f08c379a0000000000000000000000000000000000000000000000000000000008152600401808060200182810382526021815260200180611dee6021913960400191505060405180910390fd5b809150505b92915050565b6000611cf983836040518060400160405280601a81526020017f536166654d6174683a206469766973696f6e206279207a65726f000000000000815250611d01565b905092915050565b60008083118290611dad576040517f08c379a00000000000000000000000000000000000000000000000000000000081526004018080602001828103825283818151815260200191508051906020019080838360005b83811015611d72578082015181840152602081019050611d57565b50505050905090810190601f168015611d9f5780820380516001836020036101000a031916815260200191505b509250505060405180910390fd5b506000838581611db957fe5b04905080915050939250505056fe4f776e61626c653a206e6577206f776e657220697320746865207a65726f2061646472657373536166654d6174683a206d756c7469706c69636174696f6e206f766572666c6f77436f6e747261637420696e7374616e63652068617320616c7265616479206265656e20696e697469616c697a6564a26469706673582212208a1a881087a4df314037cdae22b701a92d21fd543156b23c34fe286c6007a63e64736f6c634300060c0033",
  "devdoc": {
    "details": "This is an implementation of the uFragments Ideal Money protocol.      uFragments operates symmetrically on expansion and contraction. It will both split and      combine coins to maintain a stable unit price.      This component regulates the token supply of the uFragments ERC20 token in response to      market oracles.",
    "kind": "dev",
    "methods": {
      "inRebaseWindow()": {
        "returns": {
          "_0": "If the latest block timestamp is within the rebase time window it, returns true.         Otherwise, returns false."
        }
      },
      "initialize(address)": {
        "details": "ZOS upgradable contract initialization method.      It is called at the time of contract creation to invoke parent class initializers and      initialize the contract's state variables."
      },
      "owner()": {
        "details": "Returns the address of the current owner."
      },
      "rebase(uint256,uint256)": {
        "details": "The supply adjustment equals (_totalSupply * DeviationFromTargetRate) / rebaseLag      Where DeviationFromTargetRate is (MarketOracleRate - targetRate) / targetRate      and targetRate is CpiOracleRate / baseCpi"
      },
      "renounceOwnership()": {
        "details": "Leaves the contract without owner. It will not be possible to call `onlyOwner` functions anymore. Can only be called by the current owner. NOTE: Renouncing ownership will leave the contract without an owner, thereby removing any functionality that is only available to the owner."
      },
      "setDeviationThreshold(uint256)": {
        "params": {
          "deviationThreshold_": "The new exchange rate threshold fraction."
        }
      },
      "setOrchestrator(address)": {
        "params": {
          "orchestrator_": "The address of the orchestrator contract."
        }
      },
      "setRebaseLag(uint256)": {
        "params": {
          "rebaseLag_": "The new rebase lag parameter."
        }
      },
      "setRebaseTimingParameters(uint256,uint256,uint256)": {
        "params": {
          "minRebaseTimeIntervalSec_": "More than this much time must pass between rebase        operations, in seconds.",
          "rebaseWindowLengthSec_": "The length of the rebase window in seconds.",
          "rebaseWindowOffsetSec_": "The number of seconds from the beginning of the rebase interval, where the rebase window begins."
        }
      },
      "transferOwnership(address)": {
        "details": "Transfers ownership of the contract to a new account (`newOwner`). Can only be called by the current owner."
      }
    },
    "title": "uFragments Monetary Supply Policy",
    "version": 1
  },
  "userdoc": {
    "kind": "user",
    "methods": {
      "rebase(uint256,uint256)": {
        "notice": "Initiates a new rebase operation, provided the minimum time period has elapsed."
      },
      "setDeviationThreshold(uint256)": {
        "notice": "Sets the deviation threshold fraction. If the exchange rate given by the market         oracle is within this fractional distance from the targetRate, then no supply         modifications are made. DECIMALS fixed point number."
      },
      "setOrchestrator(address)": {
        "notice": "Sets the reference to the orchestrator."
      },
      "setRebaseLag(uint256)": {
        "notice": "Sets the rebase lag parameter. It is used to dampen the applied supply adjustment by 1 / rebaseLag If the rebase lag R, equals 1, the smallest value for R, then the full supply correction is applied on each rebase cycle. If it is greater than 1, then a correction of 1/R of is applied on each rebase."
      },
      "setRebaseTimingParameters(uint256,uint256,uint256)": {
        "notice": "Sets the parameters which control the timing and frequency of         rebase operations.         a) the minimum time period that must elapse between rebase cycles.         b) the rebase window offset parameter.         c) the rebase window length parameter."
      }
    },
    "version": 1
  },
  "storageLayout": {
    "storage": [
      {
        "astId": 8128,
        "contract": "contracts/Policy.sol:Policy",
        "label": "initialized",
        "offset": 0,
        "slot": "0",
        "type": "t_bool"
      },
      {
        "astId": 8131,
        "contract": "contracts/Policy.sol:Policy",
        "label": "initializing",
        "offset": 1,
        "slot": "0",
        "type": "t_bool"
      },
      {
        "astId": 8196,
        "contract": "contracts/Policy.sol:Policy",
        "label": "______gap",
        "offset": 0,
        "slot": "1",
        "type": "t_array(t_uint256)50_storage"
      },
      {
        "astId": 8121,
        "contract": "contracts/Policy.sol:Policy",
        "label": "__gap",
        "offset": 0,
        "slot": "51",
        "type": "t_array(t_uint256)50_storage"
      },
      {
        "astId": 8208,
        "contract": "contracts/Policy.sol:Policy",
        "label": "_owner",
        "offset": 0,
        "slot": "101",
        "type": "t_address"
      },
      {
        "astId": 8326,
        "contract": "contracts/Policy.sol:Policy",
        "label": "__gap",
        "offset": 0,
        "slot": "102",
        "type": "t_array(t_uint256)49_storage"
      },
      {
        "astId": 9045,
        "contract": "contracts/Policy.sol:Policy",
        "label": "tracker",
        "offset": 0,
        "slot": "151",
        "type": "t_contract(Tracker)10078"
      },
      {
        "astId": 9047,
        "contract": "contracts/Policy.sol:Policy",
        "label": "storedCurrentRate",
        "offset": 0,
        "slot": "152",
        "type": "t_uint256"
      },
      {
        "astId": 9049,
        "contract": "contracts/Policy.sol:Policy",
        "label": "storedTargetRate",
        "offset": 0,
        "slot": "153",
        "type": "t_uint256"
      },
      {
        "astId": 9051,
        "contract": "contracts/Policy.sol:Policy",
        "label": "deviationThreshold",
        "offset": 0,
        "slot": "154",
        "type": "t_uint256"
      },
      {
        "astId": 9053,
        "contract": "contracts/Policy.sol:Policy",
        "label": "rebaseLag",
        "offset": 0,
        "slot": "155",
        "type": "t_uint256"
      },
      {
        "astId": 9055,
        "contract": "contracts/Policy.sol:Policy",
        "label": "minRebaseTimeIntervalSec",
        "offset": 0,
        "slot": "156",
        "type": "t_uint256"
      },
      {
        "astId": 9057,
        "contract": "contracts/Policy.sol:Policy",
        "label": "lastRebaseTimestampSec",
        "offset": 0,
        "slot": "157",
        "type": "t_uint256"
      },
      {
        "astId": 9059,
        "contract": "contracts/Policy.sol:Policy",
        "label": "rebaseWindowOffsetSec",
        "offset": 0,
        "slot": "158",
        "type": "t_uint256"
      },
      {
        "astId": 9061,
        "contract": "contracts/Policy.sol:Policy",
        "label": "rebaseWindowLengthSec",
        "offset": 0,
        "slot": "159",
        "type": "t_uint256"
      },
      {
        "astId": 9063,
        "contract": "contracts/Policy.sol:Policy",
        "label": "epoch",
        "offset": 0,
        "slot": "160",
        "type": "t_uint256"
      },
      {
        "astId": 9089,
        "contract": "contracts/Policy.sol:Policy",
        "label": "orchestrator",
        "offset": 0,
        "slot": "161",
        "type": "t_address"
      },
      {
        "astId": 9093,
        "contract": "contracts/Policy.sol:Policy",
        "label": "______gap",
        "offset": 0,
        "slot": "162",
        "type": "t_array(t_uint256)50_storage"
      }
    ],
    "types": {
      "t_address": {
        "encoding": "inplace",
        "label": "address",
        "numberOfBytes": "20"
      },
      "t_array(t_uint256)49_storage": {
        "base": "t_uint256",
        "encoding": "inplace",
        "label": "uint256[49]",
        "numberOfBytes": "1568"
      },
      "t_array(t_uint256)50_storage": {
        "base": "t_uint256",
        "encoding": "inplace",
        "label": "uint256[50]",
        "numberOfBytes": "1600"
      },
      "t_bool": {
        "encoding": "inplace",
        "label": "bool",
        "numberOfBytes": "1"
      },
      "t_contract(Tracker)10078": {
        "encoding": "inplace",
        "label": "contract Tracker",
        "numberOfBytes": "20"
      },
      "t_uint256": {
        "encoding": "inplace",
        "label": "uint256",
        "numberOfBytes": "32"
      }
    }
  },
  "gasEstimates": {
    "creation": {
      "codeDepositCost": "1558800",
      "executionCost": "1631",
      "totalCost": "1560431"
    },
    "external": {
      "deviationThreshold()": "1071",
      "epoch()": "1072",
      "inRebaseWindow()": "infinite",
      "initialize(address)": "infinite",
      "lastRebaseTimestampSec()": "1028",
      "minRebaseTimeIntervalSec()": "1029",
      "orchestrator()": "1158",
      "owner()": "1100",
      "rebase(uint256,uint256)": "infinite",
      "rebaseLag()": "1094",
      "rebaseWindowLengthSec()": "1094",
      "rebaseWindowOffsetSec()": "1116",
      "renounceOwnership()": "24320",
      "setDeviationThreshold(uint256)": "21214",
      "setOrchestrator(address)": "22050",
      "setRebaseLag(uint256)": "21282",
      "setRebaseTimingParameters(uint256,uint256,uint256)": "61369",
      "storedCurrentRate()": "1050",
      "storedTargetRate()": "1137",
      "tracker()": "1157",
      "transferOwnership(address)": "infinite"
    },
    "internal": {
      "computeSupplyDelta(uint256,uint256)": "infinite",
      "withinDeviationThreshold(uint256,uint256)": "infinite"
    }
  }
}