{
  "abi": [
    {
      "anonymous": false,
      "inputs": [
        {
          "indexed": true,
          "internalType": "address",
          "name": "owner",
          "type": "address"
        },
        {
          "indexed": true,
          "internalType": "address",
          "name": "spender",
          "type": "address"
        },
        {
          "indexed": false,
          "internalType": "uint256",
          "name": "value",
          "type": "uint256"
        }
      ],
      "name": "Approval",
      "type": "event"
    },
    {
      "anonymous": false,
      "inputs": [
        {
          "indexed": false,
          "internalType": "address",
          "name": "monetaryPolicy",
          "type": "address"
        }
      ],
      "name": "LogMonetaryPolicyUpdated",
      "type": "event"
    },
    {
      "anonymous": false,
      "inputs": [
        {
          "indexed": true,
          "internalType": "uint256",
          "name": "epoch",
          "type": "uint256"
        },
        {
          "indexed": false,
          "internalType": "uint256",
          "name": "totalSupply",
          "type": "uint256"
        }
      ],
      "name": "LogRebase",
      "type": "event"
    },
    {
      "anonymous": false,
      "inputs": [
        {
          "indexed": true,
          "internalType": "address",
          "name": "previousOwner",
          "type": "address"
        },
        {
          "indexed": true,
          "internalType": "address",
          "name": "newOwner",
          "type": "address"
        }
      ],
      "name": "OwnershipTransferred",
      "type": "event"
    },
    {
      "anonymous": false,
      "inputs": [
        {
          "indexed": true,
          "internalType": "address",
          "name": "from",
          "type": "address"
        },
        {
          "indexed": true,
          "internalType": "address",
          "name": "to",
          "type": "address"
        },
        {
          "indexed": false,
          "internalType": "uint256",
          "name": "value",
          "type": "uint256"
        }
      ],
      "name": "Transfer",
      "type": "event"
    },
    {
      "inputs": [
        {
          "internalType": "address",
          "name": "owner_",
          "type": "address"
        },
        {
          "internalType": "address",
          "name": "spender",
          "type": "address"
        }
      ],
      "name": "allowance",
      "outputs": [
        {
          "internalType": "uint256",
          "name": "",
          "type": "uint256"
        }
      ],
      "stateMutability": "view",
      "type": "function"
    },
    {
      "inputs": [
        {
          "internalType": "address",
          "name": "spender",
          "type": "address"
        },
        {
          "internalType": "uint256",
          "name": "value",
          "type": "uint256"
        }
      ],
      "name": "approve",
      "outputs": [
        {
          "internalType": "bool",
          "name": "",
          "type": "bool"
        }
      ],
      "stateMutability": "nonpayable",
      "type": "function"
    },
    {
      "inputs": [
        {
          "internalType": "address",
          "name": "who",
          "type": "address"
        }
      ],
      "name": "balanceOf",
      "outputs": [
        {
          "internalType": "uint256",
          "name": "",
          "type": "uint256"
        }
      ],
      "stateMutability": "view",
      "type": "function"
    },
    {
      "inputs": [],
      "name": "decimals",
      "outputs": [
        {
          "internalType": "uint8",
          "name": "",
          "type": "uint8"
        }
      ],
      "stateMutability": "view",
      "type": "function"
    },
    {
      "inputs": [
        {
          "internalType": "address",
          "name": "spender",
          "type": "address"
        },
        {
          "internalType": "uint256",
          "name": "subtractedValue",
          "type": "uint256"
        }
      ],
      "name": "decreaseAllowance",
      "outputs": [
        {
          "internalType": "bool",
          "name": "",
          "type": "bool"
        }
      ],
      "stateMutability": "nonpayable",
      "type": "function"
    },
    {
      "inputs": [
        {
          "internalType": "address",
          "name": "spender",
          "type": "address"
        },
        {
          "internalType": "uint256",
          "name": "addedValue",
          "type": "uint256"
        }
      ],
      "name": "increaseAllowance",
      "outputs": [
        {
          "internalType": "bool",
          "name": "",
          "type": "bool"
        }
      ],
      "stateMutability": "nonpayable",
      "type": "function"
    },
    {
      "inputs": [
        {
          "internalType": "string",
          "name": "name_",
          "type": "string"
        },
        {
          "internalType": "string",
          "name": "symbol_",
          "type": "string"
        }
      ],
      "name": "initialize",
      "outputs": [],
      "stateMutability": "nonpayable",
      "type": "function"
    },
    {
      "inputs": [],
      "name": "monetaryPolicy",
      "outputs": [
        {
          "internalType": "address",
          "name": "",
          "type": "address"
        }
      ],
      "stateMutability": "view",
      "type": "function"
    },
    {
      "inputs": [],
      "name": "name",
      "outputs": [
        {
          "internalType": "string",
          "name": "",
          "type": "string"
        }
      ],
      "stateMutability": "view",
      "type": "function"
    },
    {
      "inputs": [],
      "name": "owner",
      "outputs": [
        {
          "internalType": "address",
          "name": "",
          "type": "address"
        }
      ],
      "stateMutability": "view",
      "type": "function"
    },
    {
      "inputs": [
        {
          "internalType": "uint256",
          "name": "epoch",
          "type": "uint256"
        },
        {
          "internalType": "int256",
          "name": "supplyDelta",
          "type": "int256"
        }
      ],
      "name": "rebase",
      "outputs": [
        {
          "internalType": "uint256",
          "name": "",
          "type": "uint256"
        }
      ],
      "stateMutability": "nonpayable",
      "type": "function"
    },
    {
      "inputs": [],
      "name": "renounceOwnership",
      "outputs": [],
      "stateMutability": "nonpayable",
      "type": "function"
    },
    {
      "inputs": [
        {
          "internalType": "address",
          "name": "monetaryPolicy_",
          "type": "address"
        }
      ],
      "name": "setMonetaryPolicy",
      "outputs": [],
      "stateMutability": "nonpayable",
      "type": "function"
    },
    {
      "inputs": [],
      "name": "symbol",
      "outputs": [
        {
          "internalType": "string",
          "name": "",
          "type": "string"
        }
      ],
      "stateMutability": "view",
      "type": "function"
    },
    {
      "inputs": [],
      "name": "totalSupply",
      "outputs": [
        {
          "internalType": "uint256",
          "name": "",
          "type": "uint256"
        }
      ],
      "stateMutability": "view",
      "type": "function"
    },
    {
      "inputs": [
        {
          "internalType": "address",
          "name": "to",
          "type": "address"
        },
        {
          "internalType": "uint256",
          "name": "value",
          "type": "uint256"
        }
      ],
      "name": "transfer",
      "outputs": [
        {
          "internalType": "bool",
          "name": "",
          "type": "bool"
        }
      ],
      "stateMutability": "nonpayable",
      "type": "function"
    },
    {
      "inputs": [
        {
          "internalType": "address",
          "name": "from",
          "type": "address"
        },
        {
          "internalType": "address",
          "name": "to",
          "type": "address"
        },
        {
          "internalType": "uint256",
          "name": "value",
          "type": "uint256"
        }
      ],
      "name": "transferFrom",
      "outputs": [
        {
          "internalType": "bool",
          "name": "",
          "type": "bool"
        }
      ],
      "stateMutability": "nonpayable",
      "type": "function"
    },
    {
      "inputs": [
        {
          "internalType": "address",
          "name": "newOwner",
          "type": "address"
        }
      ],
      "name": "transferOwnership",
      "outputs": [],
      "stateMutability": "nonpayable",
      "type": "function"
    }
  ],
  "address": "0xED03620D4Ef91249D504D0e36A4BdaeC18EEA231",
  "args": [],
  "solcInputHash": "0xc6578710e4bc21e963bbbff6e66a45859b28ab163be6c5ac3ccbe36bf7159e16",
  "bytecode": "0x608060405234801561001057600080fd5b50612915806100206000396000f3fe608060405234801561001057600080fd5b50600436106101165760003560e01c80637a43e23f116100a257806395d89b411161007157806395d89b41146105d5578063a457c2d714610658578063a9059cbb146106bc578063dd62ed3e14610720578063f2fde38b1461079857610116565b80637a43e23f146104dd5780638b5a6a08146105295780638da5cb5b1461056d5780638e27d7d7146105a157610116565b8063313ce567116100e9578063313ce567146102a457806339509351146102c55780634cd88b761461032957806370a082311461047b578063715018a6146104d357610116565b806306fdde031461011b578063095ea7b31461019e57806318160ddd1461020257806323b872dd14610220575b600080fd5b6101236107dc565b6040518080602001828103825283818151815260200191508051906020019080838360005b83811015610163578082015181840152602081019050610148565b50505050905090810190601f1680156101905780820380516001836020036101000a031916815260200191505b509250505060405180910390f35b6101ea600480360360408110156101b457600080fd5b81019080803573ffffffffffffffffffffffffffffffffffffffff1690602001909291908035906020019092919050505061087e565b60405180821515815260200191505060405180910390f35b61020a610970565b6040518082815260200191505060405180910390f35b61028c6004803603606081101561023657600080fd5b81019080803573ffffffffffffffffffffffffffffffffffffffff169060200190929190803573ffffffffffffffffffffffffffffffffffffffff1690602001909291908035906020019092919050505061097a565b60405180821515815260200191505060405180910390f35b6102ac610cb4565b604051808260ff16815260200191505060405180910390f35b610311600480360360408110156102db57600080fd5b81019080803573ffffffffffffffffffffffffffffffffffffffff16906020019092919080359060200190929190505050610ccb565b60405180821515815260200191505060405180910390f35b6104796004803603604081101561033f57600080fd5b810190808035906020019064010000000081111561035c57600080fd5b82018360208201111561036e57600080fd5b8035906020019184600183028401116401000000008311171561039057600080fd5b91908080601f016020809104026020016040519081016040528093929190818152602001838380828437600081840152601f19601f820116905080830192505050505050509192919290803590602001906401000000008111156103f357600080fd5b82018360208201111561040557600080fd5b8035906020019184600183028401116401000000008311171561042757600080fd5b91908080601f016020809104026020016040519081016040528093929190818152602001838380828437600081840152601f19601f820116905080830192505050505050509192919290505050610ec7565b005b6104bd6004803603602081101561049157600080fd5b81019080803573ffffffffffffffffffffffffffffffffffffffff1690602001909291905050506110fb565b6040518082815260200191505060405180910390f35b6104db611158565b005b610513600480360360408110156104f357600080fd5b8101908080359060200190929190803590602001909291905050506112e3565b6040518082815260200191505060405180910390f35b61056b6004803603602081101561053f57600080fd5b81019080803573ffffffffffffffffffffffffffffffffffffffff16906020019092919050505061148d565b005b6105756115e8565b604051808273ffffffffffffffffffffffffffffffffffffffff16815260200191505060405180910390f35b6105a9611612565b604051808273ffffffffffffffffffffffffffffffffffffffff16815260200191505060405180910390f35b6105dd611638565b6040518080602001828103825283818151815260200191508051906020019080838360005b8381101561061d578082015181840152602081019050610602565b50505050905090810190601f16801561064a5780820380516001836020036101000a031916815260200191505b509250505060405180910390f35b6106a46004803603604081101561066e57600080fd5b81019080803573ffffffffffffffffffffffffffffffffffffffff169060200190929190803590602001909291905050506116da565b60405180821515815260200191505060405180910390f35b610708600480360360408110156106d257600080fd5b81019080803573ffffffffffffffffffffffffffffffffffffffff1690602001909291908035906020019092919050505061196a565b60405180821515815260200191505060405180910390f35b6107826004803603604081101561073657600080fd5b81019080803573ffffffffffffffffffffffffffffffffffffffff169060200190929190803573ffffffffffffffffffffffffffffffffffffffff169060200190929190505050611b94565b6040518082815260200191505060405180910390f35b6107da600480360360208110156107ae57600080fd5b81019080803573ffffffffffffffffffffffffffffffffffffffff169060200190929190505050611c1b565b005b606060688054600181600116156101000203166002900480601f0160208091040260200160405190810160405280929190818152602001828054600181600116156101000203166002900480156108745780601f1061084957610100808354040283529160200191610874565b820191906000526020600020905b81548152906001019060200180831161085757829003601f168201915b5050505050905090565b60008160cd60003373ffffffffffffffffffffffffffffffffffffffff1673ffffffffffffffffffffffffffffffffffffffff16815260200190815260200160002060008573ffffffffffffffffffffffffffffffffffffffff1673ffffffffffffffffffffffffffffffffffffffff168152602001908152602001600020819055508273ffffffffffffffffffffffffffffffffffffffff163373ffffffffffffffffffffffffffffffffffffffff167f8c5be1e5ebec7d5bd14f71427d1e84f3dd0314c0f7b2291e5b200ac8c7c3b925846040518082815260200191505060405180910390a36001905092915050565b600060ca54905090565b600082600073ffffffffffffffffffffffffffffffffffffffff168173ffffffffffffffffffffffffffffffffffffffff1614156109b757600080fd5b3073ffffffffffffffffffffffffffffffffffffffff168173ffffffffffffffffffffffffffffffffffffffff1614156109f057600080fd5b610a7f8360cd60008873ffffffffffffffffffffffffffffffffffffffff1673ffffffffffffffffffffffffffffffffffffffff16815260200190815260200160002060003373ffffffffffffffffffffffffffffffffffffffff1673ffffffffffffffffffffffffffffffffffffffff16815260200190815260200160002054611e2b90919063ffffffff16565b60cd60008773ffffffffffffffffffffffffffffffffffffffff1673ffffffffffffffffffffffffffffffffffffffff16815260200190815260200160002060003373ffffffffffffffffffffffffffffffffffffffff1673ffffffffffffffffffffffffffffffffffffffff168152602001908152602001600020819055506000610b1660cb5485611e7590919063ffffffff16565b9050610b6a8160cc60008973ffffffffffffffffffffffffffffffffffffffff1673ffffffffffffffffffffffffffffffffffffffff16815260200190815260200160002054611e2b90919063ffffffff16565b60cc60008873ffffffffffffffffffffffffffffffffffffffff1673ffffffffffffffffffffffffffffffffffffffff16815260200190815260200160002081905550610bff8160cc60008873ffffffffffffffffffffffffffffffffffffffff1673ffffffffffffffffffffffffffffffffffffffff16815260200190815260200160002054611efb90919063ffffffff16565b60cc60008773ffffffffffffffffffffffffffffffffffffffff1673ffffffffffffffffffffffffffffffffffffffff168152602001908152602001600020819055508473ffffffffffffffffffffffffffffffffffffffff168673ffffffffffffffffffffffffffffffffffffffff167fddf252ad1be2c89b69c2b068fc378daa952ba7f163c4a11628f55a4df523b3ef866040518082815260200191505060405180910390a36001925050509392505050565b6000606a60009054906101000a900460ff16905090565b6000610d5c8260cd60003373ffffffffffffffffffffffffffffffffffffffff1673ffffffffffffffffffffffffffffffffffffffff16815260200190815260200160002060008673ffffffffffffffffffffffffffffffffffffffff1673ffffffffffffffffffffffffffffffffffffffff16815260200190815260200160002054611efb90919063ffffffff16565b60cd60003373ffffffffffffffffffffffffffffffffffffffff1673ffffffffffffffffffffffffffffffffffffffff16815260200190815260200160002060008573ffffffffffffffffffffffffffffffffffffffff1673ffffffffffffffffffffffffffffffffffffffff168152602001908152602001600020819055508273ffffffffffffffffffffffffffffffffffffffff163373ffffffffffffffffffffffffffffffffffffffff167f8c5be1e5ebec7d5bd14f71427d1e84f3dd0314c0f7b2291e5b200ac8c7c3b92560cd60003373ffffffffffffffffffffffffffffffffffffffff1673ffffffffffffffffffffffffffffffffffffffff16815260200190815260200160002060008773ffffffffffffffffffffffffffffffffffffffff1673ffffffffffffffffffffffffffffffffffffffff168152602001908152602001600020546040518082815260200191505060405180910390a36001905092915050565b600060019054906101000a900460ff1680610ee65750610ee5611f83565b5b80610efc575060008054906101000a900460ff16155b610f51576040517f08c379a000000000000000000000000000000000000000000000000000000000815260040180806020018281038252602e8152602001806128b2602e913960400191505060405180910390fd5b60008060019054906101000a900460ff161590508015610fa1576001600060016101000a81548160ff02191690831515021790555060016000806101000a81548160ff0219169083151502179055505b610fa9611f9a565b610fb383836120a8565b610fbd60096121ba565b6009600a0a6302faf0800260ca819055506009600a0a6302faf0800260001981610fe357fe5b066000190360cc6000610ff46115e8565b73ffffffffffffffffffffffffffffffffffffffff1673ffffffffffffffffffffffffffffffffffffffff1681526020019081526020016000208190555061106060ca546009600a0a6302faf080026000198161104d57fe5b06600019036121d890919063ffffffff16565b60cb8190555061106e6115e8565b73ffffffffffffffffffffffffffffffffffffffff16600073ffffffffffffffffffffffffffffffffffffffff167fddf252ad1be2c89b69c2b068fc378daa952ba7f163c4a11628f55a4df523b3ef60ca546040518082815260200191505060405180910390a380156110f65760008060016101000a81548160ff0219169083151502179055505b505050565b600061115160cb5460cc60008573ffffffffffffffffffffffffffffffffffffffff1673ffffffffffffffffffffffffffffffffffffffff168152602001908152602001600020546121d890919063ffffffff16565b9050919050565b611160612222565b73ffffffffffffffffffffffffffffffffffffffff16609760009054906101000a900473ffffffffffffffffffffffffffffffffffffffff1673ffffffffffffffffffffffffffffffffffffffff1614611222576040517f08c379a00000000000000000000000000000000000000000000000000000000081526004018080602001828103825260208152602001807f4f776e61626c653a2063616c6c6572206973206e6f7420746865206f776e657281525060200191505060405180910390fd5b600073ffffffffffffffffffffffffffffffffffffffff16609760009054906101000a900473ffffffffffffffffffffffffffffffffffffffff1673ffffffffffffffffffffffffffffffffffffffff167f8be0079c531659141344cd1fd0a4f28419497f9722a3daafe3b4186f6b6457e060405160405180910390a36000609760006101000a81548173ffffffffffffffffffffffffffffffffffffffff021916908373ffffffffffffffffffffffffffffffffffffffff160217905550565b600060c960009054906101000a900473ffffffffffffffffffffffffffffffffffffffff1673ffffffffffffffffffffffffffffffffffffffff163373ffffffffffffffffffffffffffffffffffffffff161461133f57600080fd5b600082141561138c57827f72725a3b1e5bd622d6bcd1339bb31279c351abe8f541ac7fd320f24e1b1641f260ca546040518082815260200191505060405180910390a260ca549050611487565b60008212156113bd576113b26113a18361222a565b60ca54611e2b90919063ffffffff16565b60ca819055506113d9565b6113d28260ca54611efb90919063ffffffff16565b60ca819055505b6000196fffffffffffffffffffffffffffffffff1660ca541115611413576000196fffffffffffffffffffffffffffffffff1660ca819055505b61144160ca546009600a0a6302faf080026000198161142e57fe5b06600019036121d890919063ffffffff16565b60cb81905550827f72725a3b1e5bd622d6bcd1339bb31279c351abe8f541ac7fd320f24e1b1641f260ca546040518082815260200191505060405180910390a260ca5490505b92915050565b611495612222565b73ffffffffffffffffffffffffffffffffffffffff16609760009054906101000a900473ffffffffffffffffffffffffffffffffffffffff1673ffffffffffffffffffffffffffffffffffffffff1614611557576040517f08c379a00000000000000000000000000000000000000000000000000000000081526004018080602001828103825260208152602001807f4f776e61626c653a2063616c6c6572206973206e6f7420746865206f776e657281525060200191505060405180910390fd5b8060c960006101000a81548173ffffffffffffffffffffffffffffffffffffffff021916908373ffffffffffffffffffffffffffffffffffffffff1602179055507f0e6961f1a1afb87eaf51fd64f22ddc10062e23aa7838eac5d0bdf140bfd3897281604051808273ffffffffffffffffffffffffffffffffffffffff16815260200191505060405180910390a150565b6000609760009054906101000a900473ffffffffffffffffffffffffffffffffffffffff16905090565b60c960009054906101000a900473ffffffffffffffffffffffffffffffffffffffff1681565b606060698054600181600116156101000203166002900480601f0160208091040260200160405190810160405280929190818152602001828054600181600116156101000203166002900480156116d05780601f106116a5576101008083540402835291602001916116d0565b820191906000526020600020905b8154815290600101906020018083116116b357829003601f168201915b5050505050905090565b60008060cd60003373ffffffffffffffffffffffffffffffffffffffff1673ffffffffffffffffffffffffffffffffffffffff16815260200190815260200160002060008573ffffffffffffffffffffffffffffffffffffffff1673ffffffffffffffffffffffffffffffffffffffff1681526020019081526020016000205490508083106117ea57600060cd60003373ffffffffffffffffffffffffffffffffffffffff1673ffffffffffffffffffffffffffffffffffffffff16815260200190815260200160002060008673ffffffffffffffffffffffffffffffffffffffff1673ffffffffffffffffffffffffffffffffffffffff1681526020019081526020016000208190555061187e565b6117fd8382611e2b90919063ffffffff16565b60cd60003373ffffffffffffffffffffffffffffffffffffffff1673ffffffffffffffffffffffffffffffffffffffff16815260200190815260200160002060008673ffffffffffffffffffffffffffffffffffffffff1673ffffffffffffffffffffffffffffffffffffffff168152602001908152602001600020819055505b8373ffffffffffffffffffffffffffffffffffffffff163373ffffffffffffffffffffffffffffffffffffffff167f8c5be1e5ebec7d5bd14f71427d1e84f3dd0314c0f7b2291e5b200ac8c7c3b92560cd60003373ffffffffffffffffffffffffffffffffffffffff1673ffffffffffffffffffffffffffffffffffffffff16815260200190815260200160002060008873ffffffffffffffffffffffffffffffffffffffff1673ffffffffffffffffffffffffffffffffffffffff168152602001908152602001600020546040518082815260200191505060405180910390a3600191505092915050565b600082600073ffffffffffffffffffffffffffffffffffffffff168173ffffffffffffffffffffffffffffffffffffffff1614156119a757600080fd5b3073ffffffffffffffffffffffffffffffffffffffff168173ffffffffffffffffffffffffffffffffffffffff1614156119e057600080fd5b60006119f760cb5485611e7590919063ffffffff16565b9050611a4b8160cc60003373ffffffffffffffffffffffffffffffffffffffff1673ffffffffffffffffffffffffffffffffffffffff16815260200190815260200160002054611e2b90919063ffffffff16565b60cc60003373ffffffffffffffffffffffffffffffffffffffff1673ffffffffffffffffffffffffffffffffffffffff16815260200190815260200160002081905550611ae08160cc60008873ffffffffffffffffffffffffffffffffffffffff1673ffffffffffffffffffffffffffffffffffffffff16815260200190815260200160002054611efb90919063ffffffff16565b60cc60008773ffffffffffffffffffffffffffffffffffffffff1673ffffffffffffffffffffffffffffffffffffffff168152602001908152602001600020819055508473ffffffffffffffffffffffffffffffffffffffff163373ffffffffffffffffffffffffffffffffffffffff167fddf252ad1be2c89b69c2b068fc378daa952ba7f163c4a11628f55a4df523b3ef866040518082815260200191505060405180910390a360019250505092915050565b600060cd60008473ffffffffffffffffffffffffffffffffffffffff1673ffffffffffffffffffffffffffffffffffffffff16815260200190815260200160002060008373ffffffffffffffffffffffffffffffffffffffff1673ffffffffffffffffffffffffffffffffffffffff16815260200190815260200160002054905092915050565b611c23612222565b73ffffffffffffffffffffffffffffffffffffffff16609760009054906101000a900473ffffffffffffffffffffffffffffffffffffffff1673ffffffffffffffffffffffffffffffffffffffff1614611ce5576040517f08c379a00000000000000000000000000000000000000000000000000000000081526004018080602001828103825260208152602001807f4f776e61626c653a2063616c6c6572206973206e6f7420746865206f776e657281525060200191505060405180910390fd5b600073ffffffffffffffffffffffffffffffffffffffff168173ffffffffffffffffffffffffffffffffffffffff161415611d6b576040517f08c379a000000000000000000000000000000000000000000000000000000000815260040180806020018281038252602681526020018061286b6026913960400191505060405180910390fd5b8073ffffffffffffffffffffffffffffffffffffffff16609760009054906101000a900473ffffffffffffffffffffffffffffffffffffffff1673ffffffffffffffffffffffffffffffffffffffff167f8be0079c531659141344cd1fd0a4f28419497f9722a3daafe3b4186f6b6457e060405160405180910390a380609760006101000a81548173ffffffffffffffffffffffffffffffffffffffff021916908373ffffffffffffffffffffffffffffffffffffffff16021790555050565b6000611e6d83836040518060400160405280601e81526020017f536166654d6174683a207375627472616374696f6e206f766572666c6f770000815250612258565b905092915050565b600080831415611e885760009050611ef5565b6000828402905082848281611e9957fe5b0414611ef0576040517f08c379a00000000000000000000000000000000000000000000000000000000081526004018080602001828103825260218152602001806128916021913960400191505060405180910390fd5b809150505b92915050565b600080828401905083811015611f79576040517f08c379a000000000000000000000000000000000000000000000000000000000815260040180806020018281038252601b8152602001807f536166654d6174683a206164646974696f6e206f766572666c6f77000000000081525060200191505060405180910390fd5b8091505092915050565b6000803090506000813b9050600081149250505090565b600060019054906101000a900460ff1680611fb95750611fb8611f83565b5b80611fcf575060008054906101000a900460ff16155b612024576040517f08c379a000000000000000000000000000000000000000000000000000000000815260040180806020018281038252602e8152602001806128b2602e913960400191505060405180910390fd5b60008060019054906101000a900460ff161590508015612074576001600060016101000a81548160ff02191690831515021790555060016000806101000a81548160ff0219169083151502179055505b61207c612318565b612084612416565b80156120a55760008060016101000a81548160ff0219169083151502179055505b50565b600060019054906101000a900460ff16806120c757506120c6611f83565b5b806120dd575060008054906101000a900460ff16155b612132576040517f08c379a000000000000000000000000000000000000000000000000000000000815260040180806020018281038252602e8152602001806128b2602e913960400191505060405180910390fd5b60008060019054906101000a900460ff161590508015612182576001600060016101000a81548160ff02191690831515021790555060016000806101000a81548160ff0219169083151502179055505b61218a612318565b61219483836125bd565b80156121b55760008060016101000a81548160ff0219169083151502179055505b505050565b80606a60006101000a81548160ff021916908360ff16021790555050565b600061221a83836040518060400160405280601a81526020017f536166654d6174683a206469766973696f6e206279207a65726f000000000000815250612707565b905092915050565b600033905090565b600060ff6001901b82141561223e57600080fd5b6000821261224c5781612251565b816000035b9050919050565b6000838311158290612305576040517f08c379a00000000000000000000000000000000000000000000000000000000081526004018080602001828103825283818151815260200191508051906020019080838360005b838110156122ca5780820151818401526020810190506122af565b50505050905090810190601f1680156122f75780820380516001836020036101000a031916815260200191505b509250505060405180910390fd5b5060008385039050809150509392505050565b600060019054906101000a900460ff16806123375750612336611f83565b5b8061234d575060008054906101000a900460ff16155b6123a2576040517f08c379a000000000000000000000000000000000000000000000000000000000815260040180806020018281038252602e8152602001806128b2602e913960400191505060405180910390fd5b60008060019054906101000a900460ff1615905080156123f2576001600060016101000a81548160ff02191690831515021790555060016000806101000a81548160ff0219169083151502179055505b80156124135760008060016101000a81548160ff0219169083151502179055505b50565b600060019054906101000a900460ff16806124355750612434611f83565b5b8061244b575060008054906101000a900460ff16155b6124a0576040517f08c379a000000000000000000000000000000000000000000000000000000000815260040180806020018281038252602e8152602001806128b2602e913960400191505060405180910390fd5b60008060019054906101000a900460ff1615905080156124f0576001600060016101000a81548160ff02191690831515021790555060016000806101000a81548160ff0219169083151502179055505b60006124fa612222565b905080609760006101000a81548173ffffffffffffffffffffffffffffffffffffffff021916908373ffffffffffffffffffffffffffffffffffffffff1602179055508073ffffffffffffffffffffffffffffffffffffffff16600073ffffffffffffffffffffffffffffffffffffffff167f8be0079c531659141344cd1fd0a4f28419497f9722a3daafe3b4186f6b6457e060405160405180910390a35080156125ba5760008060016101000a81548160ff0219169083151502179055505b50565b600060019054906101000a900460ff16806125dc57506125db611f83565b5b806125f2575060008054906101000a900460ff16155b612647576040517f08c379a000000000000000000000000000000000000000000000000000000000815260040180806020018281038252602e8152602001806128b2602e913960400191505060405180910390fd5b60008060019054906101000a900460ff161590508015612697576001600060016101000a81548160ff02191690831515021790555060016000806101000a81548160ff0219169083151502179055505b82606890805190602001906126ad9291906127cd565b5081606990805190602001906126c49291906127cd565b506012606a60006101000a81548160ff021916908360ff16021790555080156127025760008060016101000a81548160ff0219169083151502179055505b505050565b600080831182906127b3576040517f08c379a00000000000000000000000000000000000000000000000000000000081526004018080602001828103825283818151815260200191508051906020019080838360005b8381101561277857808201518184015260208101905061275d565b50505050905090810190601f1680156127a55780820380516001836020036101000a031916815260200191505b509250505060405180910390fd5b5060008385816127bf57fe5b049050809150509392505050565b828054600181600116156101000203166002900490600052602060002090601f016020900481019282601f1061280e57805160ff191683800117855561283c565b8280016001018555821561283c579182015b8281111561283b578251825591602001919060010190612820565b5b509050612849919061284d565b5090565b5b8082111561286657600081600090555060010161284e565b509056fe4f776e61626c653a206e6577206f776e657220697320746865207a65726f2061646472657373536166654d6174683a206d756c7469706c69636174696f6e206f766572666c6f77436f6e747261637420696e7374616e63652068617320616c7265616479206265656e20696e697469616c697a6564a2646970667358221220939ab8cfedb45fbc8378aeea3c35785d499934f0f8ad96c5a6f350fa4daf7ee664736f6c634300060c0033",
  "devdoc": {
    "details": "Balances are internally represented with a hidden denomination, 'gons'.      We support splitting the currency in expansion and combining the currency on contraction by      changing the exchange rate between the hidden 'gons' and the public 'fragments'.",
    "kind": "dev",
    "methods": {
      "allowance(address,address)": {
        "details": "Function to check the amount of tokens that an owner has allowed to a spender.",
        "params": {
          "owner_": "The address which owns the funds.",
          "spender": "The address which will spend the funds."
        },
        "returns": {
          "_0": "The number of tokens still available for the spender."
        }
      },
      "approve(address,uint256)": {
        "details": "Approve the passed address to spend the specified amount of tokens on behalf of msg.sender. This method is included for ERC20 compatibility. increaseAllowance and decreaseAllowance should be used instead. Changing an allowance with this method brings the risk that someone may transfer both the old and the new allowance - if they are both greater than zero - if a transfer transaction is mined before the later approve() call is mined.",
        "params": {
          "spender": "The address which will spend the funds.",
          "value": "The amount of tokens to be spent."
        }
      },
      "balanceOf(address)": {
        "params": {
          "who": "The address to query."
        },
        "returns": {
          "_0": "The balance of the specified address."
        }
      },
      "decimals()": {
        "details": "Returns the number of decimals used to get its user representation. For example, if `decimals` equals `2`, a balance of `505` tokens should be displayed to a user as `5,05` (`505 / 10 ** 2`). Tokens usually opt for a value of 18, imitating the relationship between Ether and Wei. This is the value {ERC20} uses, unless {_setupDecimals} is called. NOTE: This information is only used for _display_ purposes: it in no way affects any of the arithmetic of the contract, including {IERC20-balanceOf} and {IERC20-transfer}."
      },
      "decreaseAllowance(address,uint256)": {
        "details": "Decrease the amount of tokens that an owner has allowed to a spender.",
        "params": {
          "spender": "The address which will spend the funds.",
          "subtractedValue": "The amount of tokens to decrease the allowance by."
        }
      },
      "increaseAllowance(address,uint256)": {
        "details": "Increase the amount of tokens that an owner has allowed to a spender. This method should be used instead of approve() to avoid the double approval vulnerability described above.",
        "params": {
          "addedValue": "The amount of tokens to increase the allowance by.",
          "spender": "The address which will spend the funds."
        }
      },
      "name()": {
        "details": "Returns the name of the token."
      },
      "owner()": {
        "details": "Returns the address of the current owner."
      },
      "rebase(uint256,int256)": {
        "details": "Notifies Fragments contract about a new rebase cycle.",
        "params": {
          "supplyDelta": "The number of new fragment tokens to add into circulation via expansion."
        },
        "returns": {
          "_0": "The total number of fragments after the supply adjustment."
        }
      },
      "renounceOwnership()": {
        "details": "Leaves the contract without owner. It will not be possible to call `onlyOwner` functions anymore. Can only be called by the current owner. NOTE: Renouncing ownership will leave the contract without an owner, thereby removing any functionality that is only available to the owner."
      },
      "setMonetaryPolicy(address)": {
        "params": {
          "monetaryPolicy_": "The address of the monetary policy contract to use for authentication."
        }
      },
      "symbol()": {
        "details": "Returns the symbol of the token, usually a shorter version of the name."
      },
      "totalSupply()": {
        "returns": {
          "_0": "The total number of fragments."
        }
      },
      "transfer(address,uint256)": {
        "details": "Transfer tokens to a specified address.",
        "params": {
          "to": "The address to transfer to.",
          "value": "The amount to be transferred."
        },
        "returns": {
          "_0": "True on success, false otherwise."
        }
      },
      "transferFrom(address,address,uint256)": {
        "details": "Transfer tokens from one address to another.",
        "params": {
          "from": "The address you want to send tokens from.",
          "to": "The address you want to transfer to.",
          "value": "The amount of tokens to be transferred."
        }
      },
      "transferOwnership(address)": {
        "details": "Transfers ownership of the contract to a new account (`newOwner`). Can only be called by the current owner."
      }
    },
    "title": "Tracker ERC20 token",
    "version": 1
  },
  "userdoc": {
    "kind": "user",
    "methods": {},
    "version": 1
  },
  "storageLayout": {
    "storage": [
      {
        "astId": 8128,
        "contract": "contracts/Tracker.sol:Tracker",
        "label": "initialized",
        "offset": 0,
        "slot": "0",
        "type": "t_bool"
      },
      {
        "astId": 8131,
        "contract": "contracts/Tracker.sol:Tracker",
        "label": "initializing",
        "offset": 1,
        "slot": "0",
        "type": "t_bool"
      },
      {
        "astId": 8196,
        "contract": "contracts/Tracker.sol:Tracker",
        "label": "______gap",
        "offset": 0,
        "slot": "1",
        "type": "t_array(t_uint256)50_storage"
      },
      {
        "astId": 8121,
        "contract": "contracts/Tracker.sol:Tracker",
        "label": "__gap",
        "offset": 0,
        "slot": "51",
        "type": "t_array(t_uint256)50_storage"
      },
      {
        "astId": 10102,
        "contract": "contracts/Tracker.sol:Tracker",
        "label": "_balances",
        "offset": 0,
        "slot": "101",
        "type": "t_mapping(t_address,t_uint256)"
      },
      {
        "astId": 10108,
        "contract": "contracts/Tracker.sol:Tracker",
        "label": "_allowances",
        "offset": 0,
        "slot": "102",
        "type": "t_mapping(t_address,t_mapping(t_address,t_uint256))"
      },
      {
        "astId": 10110,
        "contract": "contracts/Tracker.sol:Tracker",
        "label": "_totalSupply",
        "offset": 0,
        "slot": "103",
        "type": "t_uint256"
      },
      {
        "astId": 10112,
        "contract": "contracts/Tracker.sol:Tracker",
        "label": "_name",
        "offset": 0,
        "slot": "104",
        "type": "t_string_storage"
      },
      {
        "astId": 10114,
        "contract": "contracts/Tracker.sol:Tracker",
        "label": "_symbol",
        "offset": 0,
        "slot": "105",
        "type": "t_string_storage"
      },
      {
        "astId": 10116,
        "contract": "contracts/Tracker.sol:Tracker",
        "label": "_decimals",
        "offset": 0,
        "slot": "106",
        "type": "t_uint8"
      },
      {
        "astId": 10611,
        "contract": "contracts/Tracker.sol:Tracker",
        "label": "__gap",
        "offset": 0,
        "slot": "107",
        "type": "t_array(t_uint256)44_storage"
      },
      {
        "astId": 8208,
        "contract": "contracts/Tracker.sol:Tracker",
        "label": "_owner",
        "offset": 0,
        "slot": "151",
        "type": "t_address"
      },
      {
        "astId": 8326,
        "contract": "contracts/Tracker.sol:Tracker",
        "label": "__gap",
        "offset": 0,
        "slot": "152",
        "type": "t_array(t_uint256)49_storage"
      },
      {
        "astId": 9536,
        "contract": "contracts/Tracker.sol:Tracker",
        "label": "monetaryPolicy",
        "offset": 0,
        "slot": "201",
        "type": "t_address"
      },
      {
        "astId": 9609,
        "contract": "contracts/Tracker.sol:Tracker",
        "label": "_totalSupply",
        "offset": 0,
        "slot": "202",
        "type": "t_uint256"
      },
      {
        "astId": 9611,
        "contract": "contracts/Tracker.sol:Tracker",
        "label": "_gonsPerFragment",
        "offset": 0,
        "slot": "203",
        "type": "t_uint256"
      },
      {
        "astId": 9615,
        "contract": "contracts/Tracker.sol:Tracker",
        "label": "_gonBalances",
        "offset": 0,
        "slot": "204",
        "type": "t_mapping(t_address,t_uint256)"
      },
      {
        "astId": 9621,
        "contract": "contracts/Tracker.sol:Tracker",
        "label": "_allowedFragments",
        "offset": 0,
        "slot": "205",
        "type": "t_mapping(t_address,t_mapping(t_address,t_uint256))"
      },
      {
        "astId": 9625,
        "contract": "contracts/Tracker.sol:Tracker",
        "label": "______gap",
        "offset": 0,
        "slot": "206",
        "type": "t_array(t_uint256)50_storage"
      }
    ],
    "types": {
      "t_address": {
        "encoding": "inplace",
        "label": "address",
        "numberOfBytes": "20"
      },
      "t_array(t_uint256)44_storage": {
        "base": "t_uint256",
        "encoding": "inplace",
        "label": "uint256[44]",
        "numberOfBytes": "1408"
      },
      "t_array(t_uint256)49_storage": {
        "base": "t_uint256",
        "encoding": "inplace",
        "label": "uint256[49]",
        "numberOfBytes": "1568"
      },
      "t_array(t_uint256)50_storage": {
        "base": "t_uint256",
        "encoding": "inplace",
        "label": "uint256[50]",
        "numberOfBytes": "1600"
      },
      "t_bool": {
        "encoding": "inplace",
        "label": "bool",
        "numberOfBytes": "1"
      },
      "t_mapping(t_address,t_mapping(t_address,t_uint256))": {
        "encoding": "mapping",
        "key": "t_address",
        "label": "mapping(address => mapping(address => uint256))",
        "numberOfBytes": "32",
        "value": "t_mapping(t_address,t_uint256)"
      },
      "t_mapping(t_address,t_uint256)": {
        "encoding": "mapping",
        "key": "t_address",
        "label": "mapping(address => uint256)",
        "numberOfBytes": "32",
        "value": "t_uint256"
      },
      "t_string_storage": {
        "encoding": "bytes",
        "label": "string",
        "numberOfBytes": "32"
      },
      "t_uint256": {
        "encoding": "inplace",
        "label": "uint256",
        "numberOfBytes": "32"
      },
      "t_uint8": {
        "encoding": "inplace",
        "label": "uint8",
        "numberOfBytes": "1"
      }
    }
  },
  "gasEstimates": {
    "creation": {
      "codeDepositCost": "2103400",
      "executionCost": "2236",
      "totalCost": "2105636"
    },
    "external": {
      "allowance(address,address)": "1409",
      "approve(address,uint256)": "22408",
      "balanceOf(address)": "infinite",
      "decimals()": "1078",
      "decreaseAllowance(address,uint256)": "infinite",
      "increaseAllowance(address,uint256)": "infinite",
      "initialize(string,string)": "infinite",
      "monetaryPolicy()": "1136",
      "name()": "infinite",
      "owner()": "1122",
      "rebase(uint256,int256)": "infinite",
      "renounceOwnership()": "24408",
      "setMonetaryPolicy(address)": "23124",
      "symbol()": "infinite",
      "totalSupply()": "1081",
      "transfer(address,uint256)": "infinite",
      "transferFrom(address,address,uint256)": "infinite",
      "transferOwnership(address)": "infinite"
    }
  }
}