{
  "abi": [
    {
      "anonymous": false,
      "inputs": [
        {
          "indexed": true,
          "internalType": "address",
          "name": "owner",
          "type": "address"
        },
        {
          "indexed": true,
          "internalType": "address",
          "name": "spender",
          "type": "address"
        },
        {
          "indexed": false,
          "internalType": "uint256",
          "name": "value",
          "type": "uint256"
        }
      ],
      "name": "Approval",
      "type": "event"
    },
    {
      "anonymous": false,
      "inputs": [
        {
          "indexed": false,
          "internalType": "address",
          "name": "policy",
          "type": "address"
        }
      ],
      "name": "LogPolicyUpdated",
      "type": "event"
    },
    {
      "anonymous": false,
      "inputs": [
        {
          "indexed": true,
          "internalType": "uint256",
          "name": "epoch",
          "type": "uint256"
        },
        {
          "indexed": false,
          "internalType": "uint256",
          "name": "totalSupply",
          "type": "uint256"
        }
      ],
      "name": "LogRebase",
      "type": "event"
    },
    {
      "anonymous": false,
      "inputs": [
        {
          "indexed": true,
          "internalType": "address",
          "name": "previousOwner",
          "type": "address"
        },
        {
          "indexed": true,
          "internalType": "address",
          "name": "newOwner",
          "type": "address"
        }
      ],
      "name": "OwnershipTransferred",
      "type": "event"
    },
    {
      "anonymous": false,
      "inputs": [
        {
          "indexed": true,
          "internalType": "address",
          "name": "from",
          "type": "address"
        },
        {
          "indexed": true,
          "internalType": "address",
          "name": "to",
          "type": "address"
        },
        {
          "indexed": false,
          "internalType": "uint256",
          "name": "value",
          "type": "uint256"
        }
      ],
      "name": "Transfer",
      "type": "event"
    },
    {
      "inputs": [
        {
          "internalType": "address",
          "name": "owner_",
          "type": "address"
        },
        {
          "internalType": "address",
          "name": "spender",
          "type": "address"
        }
      ],
      "name": "allowance",
      "outputs": [
        {
          "internalType": "uint256",
          "name": "",
          "type": "uint256"
        }
      ],
      "stateMutability": "view",
      "type": "function"
    },
    {
      "inputs": [
        {
          "internalType": "address",
          "name": "spender",
          "type": "address"
        },
        {
          "internalType": "uint256",
          "name": "value",
          "type": "uint256"
        }
      ],
      "name": "approve",
      "outputs": [
        {
          "internalType": "bool",
          "name": "",
          "type": "bool"
        }
      ],
      "stateMutability": "nonpayable",
      "type": "function"
    },
    {
      "inputs": [
        {
          "internalType": "address",
          "name": "who",
          "type": "address"
        }
      ],
      "name": "balanceOf",
      "outputs": [
        {
          "internalType": "uint256",
          "name": "",
          "type": "uint256"
        }
      ],
      "stateMutability": "view",
      "type": "function"
    },
    {
      "inputs": [],
      "name": "decimals",
      "outputs": [
        {
          "internalType": "uint8",
          "name": "",
          "type": "uint8"
        }
      ],
      "stateMutability": "view",
      "type": "function"
    },
    {
      "inputs": [
        {
          "internalType": "address",
          "name": "spender",
          "type": "address"
        },
        {
          "internalType": "uint256",
          "name": "subtractedValue",
          "type": "uint256"
        }
      ],
      "name": "decreaseAllowance",
      "outputs": [
        {
          "internalType": "bool",
          "name": "",
          "type": "bool"
        }
      ],
      "stateMutability": "nonpayable",
      "type": "function"
    },
    {
      "inputs": [
        {
          "internalType": "address",
          "name": "spender",
          "type": "address"
        },
        {
          "internalType": "uint256",
          "name": "addedValue",
          "type": "uint256"
        }
      ],
      "name": "increaseAllowance",
      "outputs": [
        {
          "internalType": "bool",
          "name": "",
          "type": "bool"
        }
      ],
      "stateMutability": "nonpayable",
      "type": "function"
    },
    {
      "inputs": [
        {
          "internalType": "string",
          "name": "name_",
          "type": "string"
        },
        {
          "internalType": "string",
          "name": "symbol_",
          "type": "string"
        }
      ],
      "name": "initialize",
      "outputs": [],
      "stateMutability": "nonpayable",
      "type": "function"
    },
    {
      "inputs": [],
      "name": "name",
      "outputs": [
        {
          "internalType": "string",
          "name": "",
          "type": "string"
        }
      ],
      "stateMutability": "view",
      "type": "function"
    },
    {
      "inputs": [],
      "name": "owner",
      "outputs": [
        {
          "internalType": "address",
          "name": "",
          "type": "address"
        }
      ],
      "stateMutability": "view",
      "type": "function"
    },
    {
      "inputs": [],
      "name": "policy",
      "outputs": [
        {
          "internalType": "address",
          "name": "",
          "type": "address"
        }
      ],
      "stateMutability": "view",
      "type": "function"
    },
    {
      "inputs": [
        {
          "internalType": "uint256",
          "name": "epoch",
          "type": "uint256"
        },
        {
          "internalType": "int256",
          "name": "supplyDelta",
          "type": "int256"
        }
      ],
      "name": "rebase",
      "outputs": [
        {
          "internalType": "uint256",
          "name": "",
          "type": "uint256"
        }
      ],
      "stateMutability": "nonpayable",
      "type": "function"
    },
    {
      "inputs": [],
      "name": "renounceOwnership",
      "outputs": [],
      "stateMutability": "nonpayable",
      "type": "function"
    },
    {
      "inputs": [
        {
          "internalType": "address",
          "name": "policy_",
          "type": "address"
        }
      ],
      "name": "setPolicy",
      "outputs": [],
      "stateMutability": "nonpayable",
      "type": "function"
    },
    {
      "inputs": [],
      "name": "symbol",
      "outputs": [
        {
          "internalType": "string",
          "name": "",
          "type": "string"
        }
      ],
      "stateMutability": "view",
      "type": "function"
    },
    {
      "inputs": [],
      "name": "totalSupply",
      "outputs": [
        {
          "internalType": "uint256",
          "name": "",
          "type": "uint256"
        }
      ],
      "stateMutability": "view",
      "type": "function"
    },
    {
      "inputs": [
        {
          "internalType": "address",
          "name": "to",
          "type": "address"
        },
        {
          "internalType": "uint256",
          "name": "value",
          "type": "uint256"
        }
      ],
      "name": "transfer",
      "outputs": [
        {
          "internalType": "bool",
          "name": "",
          "type": "bool"
        }
      ],
      "stateMutability": "nonpayable",
      "type": "function"
    },
    {
      "inputs": [
        {
          "internalType": "address",
          "name": "from",
          "type": "address"
        },
        {
          "internalType": "address",
          "name": "to",
          "type": "address"
        },
        {
          "internalType": "uint256",
          "name": "value",
          "type": "uint256"
        }
      ],
      "name": "transferFrom",
      "outputs": [
        {
          "internalType": "bool",
          "name": "",
          "type": "bool"
        }
      ],
      "stateMutability": "nonpayable",
      "type": "function"
    },
    {
      "inputs": [
        {
          "internalType": "address",
          "name": "newOwner",
          "type": "address"
        }
      ],
      "name": "transferOwnership",
      "outputs": [],
      "stateMutability": "nonpayable",
      "type": "function"
    }
  ],
  "address": "0x957E8903C5Ab8636f09A91492E417e5012e59DE6",
  "args": [],
  "solcInputHash": "0x28d7fe7664e4dac601819c2f0d7abf10a64a1e3617bbc05925ff53be5b24c41c",
  "bytecode": "0x608060405234801561001057600080fd5b50611736806100206000396000f3fe608060405234801561001057600080fd5b50600436106101165760003560e01c8063715018a6116100a257806395d89b411161007157806395d89b4114610444578063a457c2d71461044c578063a9059cbb14610478578063dd62ed3e146104a4578063f2fde38b146104d257610116565b8063715018a6146103eb5780637a43e23f146103f35780637d4163d3146104165780638da5cb5b1461043c57610116565b806323b872dd116100e957806323b872dd14610216578063313ce5671461024c578063395093511461026a5780634cd88b761461029657806370a08231146103c557610116565b80630505c8c91461011b57806306fdde031461013f578063095ea7b3146101bc57806318160ddd146101fc575b600080fd5b6101236104f8565b604080516001600160a01b039092168252519081900360200190f35b610147610507565b6040805160208082528351818301528351919283929083019185019080838360005b83811015610181578181015183820152602001610169565b50505050905090810190601f1680156101ae5780820380516001836020036101000a031916815260200191505b509250505060405180910390f35b6101e8600480360360408110156101d257600080fd5b506001600160a01b03813516906020013561059d565b604080519115158252519081900360200190f35b610204610604565b60408051918252519081900360200190f35b6101e86004803603606081101561022c57600080fd5b506001600160a01b0381358116916020810135909116906040013561060a565b610254610751565b6040805160ff9092168252519081900360200190f35b6101e86004803603604081101561028057600080fd5b506001600160a01b03813516906020013561075a565b6103c3600480360360408110156102ac57600080fd5b8101906020810181356401000000008111156102c757600080fd5b8201836020820111156102d957600080fd5b803590602001918460018302840111640100000000831117156102fb57600080fd5b91908080601f016020809104026020016040519081016040528093929190818152602001838380828437600092019190915250929594936020810193503591505064010000000081111561034e57600080fd5b82018360208201111561036057600080fd5b8035906020019184600183028401116401000000008311171561038257600080fd5b91908080601f0160208091040260200160405190810160405280939291908181526020018383808284376000920191909152509295506107ed945050505050565b005b610204600480360360208110156103db57600080fd5b50356001600160a01b031661095a565b6103c3610982565b6102046004803603604081101561040957600080fd5b5080359060200135610a36565b6103c36004803603602081101561042c57600080fd5b50356001600160a01b0316610b46565b610123610bff565b610147610c0e565b6101e86004803603604081101561046257600080fd5b506001600160a01b038135169060200135610c6f565b6101e86004803603604081101561048e57600080fd5b506001600160a01b038135169060200135610d58565b610204600480360360408110156104ba57600080fd5b506001600160a01b0381358116916020013516610e44565b6103c3600480360360208110156104e857600080fd5b50356001600160a01b0316610e6f565b60c9546001600160a01b031681565b60688054604080516020601f60026000196101006001881615020190951694909404938401819004810282018101909252828152606093909290918301828280156105935780601f1061056857610100808354040283529160200191610593565b820191906000526020600020905b81548152906001019060200180831161057657829003601f168201915b5050505050905090565b33600081815260cd602090815260408083206001600160a01b038716808552908352818420869055815186815291519394909390927f8c5be1e5ebec7d5bd14f71427d1e84f3dd0314c0f7b2291e5b200ac8c7c3b925928290030190a35060015b92915050565b60ca5490565b6000826001600160a01b03811661062057600080fd5b6001600160a01b03811630141561063657600080fd5b6001600160a01b038516600090815260cd602090815260408083203384529091529020546106649084610f7a565b6001600160a01b038616600090815260cd6020908152604080832033845290915281209190915560cb54610699908590610fc3565b6001600160a01b038716600090815260cc60205260409020549091506106bf9082610f7a565b6001600160a01b03808816600090815260cc602052604080822093909355908716815220546106ee908261101c565b6001600160a01b03808716600081815260cc602090815260409182902094909455805188815290519193928a16927fddf252ad1be2c89b69c2b068fc378daa952ba7f163c4a11628f55a4df523b3ef92918290030190a350600195945050505050565b606a5460ff1690565b33600090815260cd602090815260408083206001600160a01b0386168452909152812054610788908361101c565b33600081815260cd602090815260408083206001600160a01b0389168085529083529281902085905580519485525191937f8c5be1e5ebec7d5bd14f71427d1e84f3dd0314c0f7b2291e5b200ac8c7c3b925929081900390910190a350600192915050565b600054610100900460ff16806108065750610806611076565b80610814575060005460ff16155b61084f5760405162461bcd60e51b815260040180806020018281038252602e8152602001806116af602e913960400191505060405180910390fd5b600054610100900460ff1615801561087a576000805460ff1961ff0019909116610100171660011790555b61088261107c565b61088c838361112e565b61089660096111e3565b66b1a2bc2ec5000060ca556678d2044da4ffff1960cc60006108b6610bff565b6001600160a01b0316815260208101919091526040016000205560ca546108eb9066b1a2bc2ec500006000195b0619906111f9565b60cb556108f6610bff565b6001600160a01b031660006001600160a01b03167fddf252ad1be2c89b69c2b068fc378daa952ba7f163c4a11628f55a4df523b3ef60ca546040518082815260200191505060405180910390a38015610955576000805461ff00191690555b505050565b60cb546001600160a01b038216600090815260cc602052604081205490916105fe91906111f9565b61098a61123b565b6097546001600160a01b039081169116146109ec576040805162461bcd60e51b815260206004820181905260248201527f4f776e61626c653a2063616c6c6572206973206e6f7420746865206f776e6572604482015290519081900360640190fd5b6097546040516000916001600160a01b0316907f8be0079c531659141344cd1fd0a4f28419497f9722a3daafe3b4186f6b6457e0908390a3609780546001600160a01b0319169055565b60c9546000906001600160a01b03163314610a5057600080fd5b81610a965760ca54604080519182525184917f72725a3b1e5bd622d6bcd1339bb31279c351abe8f541ac7fd320f24e1b1641f2919081900360200190a25060ca546105fe565b6000821215610abc57610ab4610aab8361123f565b60ca5490610f7a565b60ca55610acd565b60ca54610ac9908361101c565b60ca555b60ca546001600160801b031015610aea576001600160801b0360ca555b60ca54610b019066b1a2bc2ec500006000196108e3565b60cb5560ca54604080519182525184917f72725a3b1e5bd622d6bcd1339bb31279c351abe8f541ac7fd320f24e1b1641f2919081900360200190a25060ca5492915050565b610b4e610bff565b6001600160a01b0316336001600160a01b03161480610b855750610b70610bff565b6001600160a01b0316326001600160a01b0316145b610bc05760405162461bcd60e51b81526004018080602001828103825260248152602001806116dd6024913960400191505060405180910390fd5b604080516001600160a01b038316815290517f13e41751428eaae674551d3913eadc57f8a0996f5b7e8557eeb208708f83f74a9181900360200190a150565b6097546001600160a01b031690565b60698054604080516020601f60026000196101006001881615020190951694909404938401819004810282018101909252828152606093909290918301828280156105935780601f1061056857610100808354040283529160200191610593565b33600090815260cd602090815260408083206001600160a01b0386168452909152812054808310610cc35733600090815260cd602090815260408083206001600160a01b0388168452909152812055610cf2565b610ccd8184610f7a565b33600090815260cd602090815260408083206001600160a01b03891684529091529020555b33600081815260cd602090815260408083206001600160a01b0389168085529083529281902054815190815290519293927f8c5be1e5ebec7d5bd14f71427d1e84f3dd0314c0f7b2291e5b200ac8c7c3b925929181900390910190a35060019392505050565b6000826001600160a01b038116610d6e57600080fd5b6001600160a01b038116301415610d8457600080fd5b6000610d9b60cb5485610fc390919063ffffffff16565b33600090815260cc6020526040902054909150610db89082610f7a565b33600090815260cc6020526040808220929092556001600160a01b03871681522054610de4908261101c565b6001600160a01b038616600081815260cc60209081526040918290209390935580518781529051919233927fddf252ad1be2c89b69c2b068fc378daa952ba7f163c4a11628f55a4df523b3ef9281900390910190a3506001949350505050565b6001600160a01b03918216600090815260cd6020908152604080832093909416825291909152205490565b610e7761123b565b6097546001600160a01b03908116911614610ed9576040805162461bcd60e51b815260206004820181905260248201527f4f776e61626c653a2063616c6c6572206973206e6f7420746865206f776e6572604482015290519081900360640190fd5b6001600160a01b038116610f1e5760405162461bcd60e51b81526004018080602001828103825260268152602001806116686026913960400191505060405180910390fd5b6097546040516001600160a01b038084169216907f8be0079c531659141344cd1fd0a4f28419497f9722a3daafe3b4186f6b6457e090600090a3609780546001600160a01b0319166001600160a01b0392909216919091179055565b6000610fbc83836040518060400160405280601e81526020017f536166654d6174683a207375627472616374696f6e206f766572666c6f770000815250611267565b9392505050565b600082610fd2575060006105fe565b82820282848281610fdf57fe5b0414610fbc5760405162461bcd60e51b815260040180806020018281038252602181526020018061168e6021913960400191505060405180910390fd5b600082820183811015610fbc576040805162461bcd60e51b815260206004820152601b60248201527f536166654d6174683a206164646974696f6e206f766572666c6f770000000000604482015290519081900360640190fd5b303b1590565b600054610100900460ff16806110955750611095611076565b806110a3575060005460ff16155b6110de5760405162461bcd60e51b815260040180806020018281038252602e8152602001806116af602e913960400191505060405180910390fd5b600054610100900460ff16158015611109576000805460ff1961ff0019909116610100171660011790555b6111116112fe565b61111961139e565b801561112b576000805461ff00191690555b50565b600054610100900460ff16806111475750611147611076565b80611155575060005460ff16155b6111905760405162461bcd60e51b815260040180806020018281038252602e8152602001806116af602e913960400191505060405180910390fd5b600054610100900460ff161580156111bb576000805460ff1961ff0019909116610100171660011790555b6111c36112fe565b6111cd8383611497565b8015610955576000805461ff0019169055505050565b606a805460ff191660ff92909216919091179055565b6000610fbc83836040518060400160405280601a81526020017f536166654d6174683a206469766973696f6e206279207a65726f00000000000081525061156f565b3390565b6000600160ff1b82141561125257600080fd5b6000821261126057816105fe565b5060000390565b600081848411156112f65760405162461bcd60e51b81526004018080602001828103825283818151815260200191508051906020019080838360005b838110156112bb5781810151838201526020016112a3565b50505050905090810190601f1680156112e85780820380516001836020036101000a031916815260200191505b509250505060405180910390fd5b505050900390565b600054610100900460ff16806113175750611317611076565b80611325575060005460ff16155b6113605760405162461bcd60e51b815260040180806020018281038252602e8152602001806116af602e913960400191505060405180910390fd5b600054610100900460ff16158015611119576000805460ff1961ff001990911661010017166001179055801561112b576000805461ff001916905550565b600054610100900460ff16806113b757506113b7611076565b806113c5575060005460ff16155b6114005760405162461bcd60e51b815260040180806020018281038252602e8152602001806116af602e913960400191505060405180910390fd5b600054610100900460ff1615801561142b576000805460ff1961ff0019909116610100171660011790555b600061143561123b565b609780546001600160a01b0319166001600160a01b038316908117909155604051919250906000907f8be0079c531659141344cd1fd0a4f28419497f9722a3daafe3b4186f6b6457e0908290a350801561112b576000805461ff001916905550565b600054610100900460ff16806114b057506114b0611076565b806114be575060005460ff16155b6114f95760405162461bcd60e51b815260040180806020018281038252602e8152602001806116af602e913960400191505060405180910390fd5b600054610100900460ff16158015611524576000805460ff1961ff0019909116610100171660011790555b82516115379060689060208601906115d4565b50815161154b9060699060208501906115d4565b50606a805460ff191660121790558015610955576000805461ff0019169055505050565b600081836115be5760405162461bcd60e51b81526020600482018181528351602484015283519092839260449091019190850190808383600083156112bb5781810151838201526020016112a3565b5060008385816115ca57fe5b0495945050505050565b828054600181600116156101000203166002900490600052602060002090601f016020900481019282601f1061161557805160ff1916838001178555611642565b82800160010185558215611642579182015b82811115611642578251825591602001919060010190611627565b5061164e929150611652565b5090565b5b8082111561164e576000815560010161165356fe4f776e61626c653a206e6577206f776e657220697320746865207a65726f2061646472657373536166654d6174683a206d756c7469706c69636174696f6e206f766572666c6f77436f6e747261637420696e7374616e63652068617320616c7265616479206265656e20696e697469616c697a65644f6e6c79206f776e65722063616e206578656375746520746869732066756e6374696f6ea2646970667358221220011b2cc17e2165e6f5c4877ee52b1cb7ebc2847bc821126dade08f6a2837c42364736f6c634300060c0033",
  "devdoc": {
    "details": "Balances are internally represented with a hidden denomination, 'gons'.      We support splitting the currency in expansion and combining the currency on contraction by      changing the exchange rate between the hidden 'gons' and the public 'fragments'.",
    "kind": "dev",
    "methods": {
      "allowance(address,address)": {
        "details": "Function to check the amount of tokens that an owner has allowed to a spender.",
        "params": {
          "owner_": "The address which owns the funds.",
          "spender": "The address which will spend the funds."
        },
        "returns": {
          "_0": "The number of tokens still available for the spender."
        }
      },
      "approve(address,uint256)": {
        "details": "Approve the passed address to spend the specified amount of tokens on behalf of msg.sender. This method is included for ERC20 compatibility. increaseAllowance and decreaseAllowance should be used instead. Changing an allowance with this method brings the risk that someone may transfer both the old and the new allowance - if they are both greater than zero - if a transfer transaction is mined before the later approve() call is mined.",
        "params": {
          "spender": "The address which will spend the funds.",
          "value": "The amount of tokens to be spent."
        }
      },
      "balanceOf(address)": {
        "params": {
          "who": "The address to query."
        },
        "returns": {
          "_0": "The balance of the specified address."
        }
      },
      "decimals()": {
        "details": "Returns the number of decimals used to get its user representation. For example, if `decimals` equals `2`, a balance of `505` tokens should be displayed to a user as `5,05` (`505 / 10 ** 2`). Tokens usually opt for a value of 18, imitating the relationship between Ether and Wei. This is the value {ERC20} uses, unless {_setupDecimals} is called. NOTE: This information is only used for _display_ purposes: it in no way affects any of the arithmetic of the contract, including {IERC20-balanceOf} and {IERC20-transfer}."
      },
      "decreaseAllowance(address,uint256)": {
        "details": "Decrease the amount of tokens that an owner has allowed to a spender.",
        "params": {
          "spender": "The address which will spend the funds.",
          "subtractedValue": "The amount of tokens to decrease the allowance by."
        }
      },
      "increaseAllowance(address,uint256)": {
        "details": "Increase the amount of tokens that an owner has allowed to a spender. This method should be used instead of approve() to avoid the double approval vulnerability described above.",
        "params": {
          "addedValue": "The amount of tokens to increase the allowance by.",
          "spender": "The address which will spend the funds."
        }
      },
      "name()": {
        "details": "Returns the name of the token."
      },
      "owner()": {
        "details": "Returns the address of the current owner."
      },
      "rebase(uint256,int256)": {
        "details": "Notifies Fragments contract about a new rebase cycle.",
        "params": {
          "supplyDelta": "The number of new fragment tokens to add into circulation via expansion."
        },
        "returns": {
          "_0": "The total number of fragments after the supply adjustment."
        }
      },
      "renounceOwnership()": {
        "details": "Leaves the contract without owner. It will not be possible to call `onlyOwner` functions anymore. Can only be called by the current owner. NOTE: Renouncing ownership will leave the contract without an owner, thereby removing any functionality that is only available to the owner."
      },
      "setPolicy(address)": {
        "params": {
          "policy_": "The address of the monetary policy contract to use for authentication."
        }
      },
      "symbol()": {
        "details": "Returns the symbol of the token, usually a shorter version of the name."
      },
      "totalSupply()": {
        "returns": {
          "_0": "The total number of fragments."
        }
      },
      "transfer(address,uint256)": {
        "details": "Transfer tokens to a specified address.",
        "params": {
          "to": "The address to transfer to.",
          "value": "The amount to be transferred."
        },
        "returns": {
          "_0": "True on success, false otherwise."
        }
      },
      "transferFrom(address,address,uint256)": {
        "details": "Transfer tokens from one address to another.",
        "params": {
          "from": "The address you want to send tokens from.",
          "to": "The address you want to transfer to.",
          "value": "The amount of tokens to be transferred."
        }
      },
      "transferOwnership(address)": {
        "details": "Transfers ownership of the contract to a new account (`newOwner`). Can only be called by the current owner."
      }
    },
    "title": "Tracker ERC20 token",
    "version": 1
  },
  "userdoc": {
    "kind": "user",
    "methods": {},
    "version": 1
  },
  "storageLayout": {
    "storage": [
      {
        "astId": 8128,
        "contract": "contracts/Tracker.sol:Tracker",
        "label": "initialized",
        "offset": 0,
        "slot": "0",
        "type": "t_bool"
      },
      {
        "astId": 8131,
        "contract": "contracts/Tracker.sol:Tracker",
        "label": "initializing",
        "offset": 1,
        "slot": "0",
        "type": "t_bool"
      },
      {
        "astId": 8196,
        "contract": "contracts/Tracker.sol:Tracker",
        "label": "______gap",
        "offset": 0,
        "slot": "1",
        "type": "t_array(t_uint256)50_storage"
      },
      {
        "astId": 8121,
        "contract": "contracts/Tracker.sol:Tracker",
        "label": "__gap",
        "offset": 0,
        "slot": "51",
        "type": "t_array(t_uint256)50_storage"
      },
      {
        "astId": 10142,
        "contract": "contracts/Tracker.sol:Tracker",
        "label": "_balances",
        "offset": 0,
        "slot": "101",
        "type": "t_mapping(t_address,t_uint256)"
      },
      {
        "astId": 10148,
        "contract": "contracts/Tracker.sol:Tracker",
        "label": "_allowances",
        "offset": 0,
        "slot": "102",
        "type": "t_mapping(t_address,t_mapping(t_address,t_uint256))"
      },
      {
        "astId": 10150,
        "contract": "contracts/Tracker.sol:Tracker",
        "label": "_totalSupply",
        "offset": 0,
        "slot": "103",
        "type": "t_uint256"
      },
      {
        "astId": 10152,
        "contract": "contracts/Tracker.sol:Tracker",
        "label": "_name",
        "offset": 0,
        "slot": "104",
        "type": "t_string_storage"
      },
      {
        "astId": 10154,
        "contract": "contracts/Tracker.sol:Tracker",
        "label": "_symbol",
        "offset": 0,
        "slot": "105",
        "type": "t_string_storage"
      },
      {
        "astId": 10156,
        "contract": "contracts/Tracker.sol:Tracker",
        "label": "_decimals",
        "offset": 0,
        "slot": "106",
        "type": "t_uint8"
      },
      {
        "astId": 10651,
        "contract": "contracts/Tracker.sol:Tracker",
        "label": "__gap",
        "offset": 0,
        "slot": "107",
        "type": "t_array(t_uint256)44_storage"
      },
      {
        "astId": 8208,
        "contract": "contracts/Tracker.sol:Tracker",
        "label": "_owner",
        "offset": 0,
        "slot": "151",
        "type": "t_address"
      },
      {
        "astId": 8326,
        "contract": "contracts/Tracker.sol:Tracker",
        "label": "__gap",
        "offset": 0,
        "slot": "152",
        "type": "t_array(t_uint256)49_storage"
      },
      {
        "astId": 9567,
        "contract": "contracts/Tracker.sol:Tracker",
        "label": "policy",
        "offset": 0,
        "slot": "201",
        "type": "t_address"
      },
      {
        "astId": 9640,
        "contract": "contracts/Tracker.sol:Tracker",
        "label": "_totalSupply",
        "offset": 0,
        "slot": "202",
        "type": "t_uint256"
      },
      {
        "astId": 9642,
        "contract": "contracts/Tracker.sol:Tracker",
        "label": "_gonsPerFragment",
        "offset": 0,
        "slot": "203",
        "type": "t_uint256"
      },
      {
        "astId": 9646,
        "contract": "contracts/Tracker.sol:Tracker",
        "label": "_gonBalances",
        "offset": 0,
        "slot": "204",
        "type": "t_mapping(t_address,t_uint256)"
      },
      {
        "astId": 9652,
        "contract": "contracts/Tracker.sol:Tracker",
        "label": "_allowedFragments",
        "offset": 0,
        "slot": "205",
        "type": "t_mapping(t_address,t_mapping(t_address,t_uint256))"
      },
      {
        "astId": 9656,
        "contract": "contracts/Tracker.sol:Tracker",
        "label": "______gap",
        "offset": 0,
        "slot": "206",
        "type": "t_array(t_uint256)50_storage"
      }
    ],
    "types": {
      "t_address": {
        "encoding": "inplace",
        "label": "address",
        "numberOfBytes": "20"
      },
      "t_array(t_uint256)44_storage": {
        "base": "t_uint256",
        "encoding": "inplace",
        "label": "uint256[44]",
        "numberOfBytes": "1408"
      },
      "t_array(t_uint256)49_storage": {
        "base": "t_uint256",
        "encoding": "inplace",
        "label": "uint256[49]",
        "numberOfBytes": "1568"
      },
      "t_array(t_uint256)50_storage": {
        "base": "t_uint256",
        "encoding": "inplace",
        "label": "uint256[50]",
        "numberOfBytes": "1600"
      },
      "t_bool": {
        "encoding": "inplace",
        "label": "bool",
        "numberOfBytes": "1"
      },
      "t_mapping(t_address,t_mapping(t_address,t_uint256))": {
        "encoding": "mapping",
        "key": "t_address",
        "label": "mapping(address => mapping(address => uint256))",
        "numberOfBytes": "32",
        "value": "t_mapping(t_address,t_uint256)"
      },
      "t_mapping(t_address,t_uint256)": {
        "encoding": "mapping",
        "key": "t_address",
        "label": "mapping(address => uint256)",
        "numberOfBytes": "32",
        "value": "t_uint256"
      },
      "t_string_storage": {
        "encoding": "bytes",
        "label": "string",
        "numberOfBytes": "32"
      },
      "t_uint256": {
        "encoding": "inplace",
        "label": "uint256",
        "numberOfBytes": "32"
      },
      "t_uint8": {
        "encoding": "inplace",
        "label": "uint8",
        "numberOfBytes": "1"
      }
    }
  },
  "gasEstimates": {
    "creation": {
      "codeDepositCost": "1188400",
      "executionCost": "1234",
      "totalCost": "1189634"
    },
    "external": {
      "allowance(address,address)": "1338",
      "approve(address,uint256)": "22346",
      "balanceOf(address)": "2543",
      "decimals()": "1058",
      "decreaseAllowance(address,uint256)": "infinite",
      "increaseAllowance(address,uint256)": "23382",
      "initialize(string,string)": "infinite",
      "name()": "infinite",
      "owner()": "1126",
      "policy()": "1061",
      "rebase(uint256,int256)": "infinite",
      "renounceOwnership()": "24224",
      "setPolicy(address)": "infinite",
      "symbol()": "infinite",
      "totalSupply()": "1088",
      "transfer(address,uint256)": "infinite",
      "transferFrom(address,address,uint256)": "infinite",
      "transferOwnership(address)": "infinite"
    }
  }
}